:044000006F2090633A
:104004000040000000000000DC5C0000DE5C0000FA
:1040140000000000366E00000000000000000000F8
:10402400366E0000366E0000000000000000000044
:10403400366E000000000000366E00000000000034
:10404400366E0000366E0000366E0000366E0000DC
:10405400366E0000366E0000366E0000366E0000CC
:10406400366E0000366E0000366E0000366E0000BC
:10407400CC6A0000F06A0000BE700000366E0000DA
:10408400366E0000366E0000366E0000366E00009C
:10409400366E0000366E0000366E0000366E00008C
:1040A400366E0000366E0000366E0000366E00007C
:1040B400366E0000366E0000366E0000366E00006C
:1040C400366E0000366E0000366E0000366E00005C
:1040D400366E0000366E0000366E0000806A000006
:1040E400366E0000366E0000366E0000366E00003C
:1040F400366E0000366E0000366E0000366E00002C
:1041040000000000366E0000366E0000366E0000BF
:10411400366E0000366E0000EA690000366E00005C
:10412400366E0000366E0000366E0000366E0000FB
:10413400366E0000366E0000366E0000366E0000EB
:10414400366E0000366E0000366E0000366E0000DB
:10415400366E0000967A0000366E0000366E00005F
:10416400366E0000366E0000366E0000366E0000BB
:10417400366E0000366E0000366E0000366E0000AB
:10418400366E0000366E0000366E0000366E00009B
:10419400366E0000366E0000366E0000366E00008B
:1041A400000000000000000000000000000000000B
:0C41B400000000000000000000000000FF
:1041C000397101436EC619A0397141536AC866CA74
:1041D00062CC5ECE19A0397101535AD056D252D456
:1041E0004ED64AD826DA22DC06DE330161408282CE
:1041F00041114AC026C222C406C68282B24D410184
:10420000024D924C224CB24B4101024B924A224A3F
:10421000B2494101024992442244B24041018280A4
:104220003D432A876373C3029377F700BDEFADE583
:10423000937606FF3D8ABA960CC34CC30CC74CC795
:104240004107E36BD7FE11E28280B306C3408A06C2
:104250009702000096966780A6002307B700A30682
:10426000B7002306B700A305B7002305B700A304D2
:10427000B7002304B700A303B7002303B700A302CA
:10428000B7002302B700A301B7002301B700A300C2
:10429000B7002300B700828093F5F50F9396850051
:1042A000D58D93960501D58D61B79396270097021A
:1042B000000096968682E78086FA9680C1171D8F49
:1042C0003E96E374C3F8A5B73367B500FD530D8B75
:1042D00079E7B7877F7F9387F7F710419441B372EF
:1042E000F6003363F600BE92B3E262006395720C8F
:1042F0006318D6065041D441B372F6003363F6001A
:10430000BE92B3E262006396720A631BD604104544
:104310009445B372F6003363F600BE92B3E26200D6
:10432000639F7208631ED6025045D445B372F600EF
:104330003363F600BE92B3E26200639872086311C1
:10434000D60210499449B372F6003363F600BE9268
:10435000B3E26200639172085105D105E30FD6F60E
:104360001317060193970601631CF7001357060104
:1043700093D706013305F7409375F50F91E98280D5
:104380004183C1833305F7409375F50F91E1828036
:104390001377F70F93F7F70F3305F740828010215B
:1043A0009421050585056313D60075FA3305D640BB
:1043B000828011059105E314D6FE01458280210516
:1043C000A105E31ED6FC014582803105B105E31845
:1043D000D6FC014582804105C105E312D6FC0145AA
:1043E0008280AA87014585C399CD11CE23A80700F5
:1043F000D0C38CC31387C7002F200708A1072FA0A5
:104400000708054582808280814705C118418147A0
:1044100009CF544199CA58450845B307E54063653B
:10442000A700B307D500998FFD173E85828009E567
:10443000014582800145D1BBEFF2FFD91C41AA841E
:10444000F5DB5C41E5DBFDD575D63A89B68A328469
:104450002E8A5D3F65D16376850013791900E31BD1
:1044600009FC637385002A8403ABC4000F00F00FBE
:1044700003A94400330969416373240122898840F8
:104480004A86D2855A95B3092441EF70C005639AD4
:104490000902B3092B01DC4063E3F90081499387EA
:1044A000C4000F00500F2FA037099C4889C72286EF
:1044B0008545268582970545E38F0AF623A08A0065
:1044C0009DBF88404E86B3052A01EF70C001E1B759
:1044D000EFF21FD241110147740002C6893F01C5A6
:1044E0003245410105BB0145EDBF814701CD184172
:1044F000814709CB544199C658451C456366F7006E
:10450000B307F7403E8582803697DDBF09E5014558
:1045100082800145DDB9EFF21FCC1C41AA84F5DB96
:104520005C41E5DBFDD575D63A89B68A32842E8AA0
:104530006D3F65D16376850013791900E31B09FC93
:10454000637385002A8403AB84000F00F00F03A976
:104550004400330969416373240122898C404A86EF
:104560005285DA95B3092441EF60F077639A090226
:10457000B3092B01DC4063E3F90081499387840090
:104580000F00500F2FA037099C4889C7228681450C
:10459000268582970545E38F0AF623A08A009DBFF2
:1045A0008C404E8633052A01EF60F073E1B7EFF2DD
:1045B0003FC441110147740002C6893F01C532451D
:1045C000410189B90145EDBF81473387F500830675
:1045D00007003307F50089E6230007003E85828047
:1045E0008507C20714A3C183CDB7EFF27FC0411185
:1045F000AA87CC871305F10085458297410119B937
:10460000B75700209387872493864701884309C5BD
:1046100003470506098B09E79107E399D7FE014592
:10462000828038551DC3EFF2BFBC814793960701C6
:1046300085073386F5000306F6FFC18265FA2E85ED
:10464000B685029742054181F1B601458280EFF2BD
:104650003FBA83470506858BA1C3B7F50000938554
:1046600085022A847D3F1C402285CC435D3FB7F5FF
:1046700000009385C5FA22856D370C4489E5B7F5AE
:1046800000009385C5B12285693FB7F50000938589
:1046900005B222857937BDBEB7F50000938545B2D6
:1046A000D5BF982105C39C418566938606F0F58F9A
:1046B0009387078081CB1441FD578DC29C227D8F4B
:1046C000FD5709CF034705068147058B01EB9C4148
:1046D000B18393C71700858BB307F0403E85828076
:1046E00023840500A147254811E521451D8D62055C
:1046F000618582801376F5001377F60F9306070322
:104700006357C8001307770593168701E186FD17E5
:1047100093F7F70F3387F50014A31181F1B7EFF288
:104720003FADB755002081471384C523130600030E
:104730002547B306F40090A28507E39CE7FE1C41E1
:1047400005474841A183BD8B637CF7001D47637912
:10475000F70021476386E7009385C52351372285FB
:1047600055BC9357F54133C7A7001D8FA38505009E
:10477000AD47294619EF635C0502FD1793F7F70F64
:10478000BE951307D00298A12D451D8D6205618548
:104790008280B366C702FD1793F7F70F3388F500E1
:1047A000938606032300D8003347C702E1B769FDAB
:1047B000FD1793F7F70FBE9513070003E9B7EFF264
:1047C0003FA3411140002E89B7F500003146AA846D
:1047D000938505B52285EF601051B7F500009385EC
:1047E000C5B326853D3DA2854A85A53FB305A440B6
:1047F000AD0526853D35B7F50000938585B4268542
:104800000D358147130600032D47B306F40090A22F
:104810008507E39CE7FEA2854A85D935A2852685D2
:104820000935B7F50000938585022685DD3B4101FA
:10483000D5B2EFF25F9A2A842E852E89CD35AA85CE
:104840002285C533D944898CC204C1846343900056
:104850009144285493050002FD14413B1395040133
:10486000418193140501C1846DF583270900054733
:10487000A183BD8B636EF708B7F500009385C597DC
:1048800022854533B7F400009385449A2285513B35
:104890009D497D5A8347090093058007B3D7374167
:1048A000858B99E39305D0022854FD193D3BE39392
:1048B00049FF9385449A2285AD3334540325C900BA
:1048C000A9C2096681473548130616403307F5002B
:1048D000182393950701C1818507E369E8FE3357E3
:1048E000E600058B65D79307400263F0B706930592
:1048F000400282963C5437F500008D451305859A99
:104900008297B7F50000938585022285193BF5B89B
:104910001D476367F700B7F50000938545988DB78D
:1049200021476397E700B7F500009385C59889BFD5
:1049300025476397E700B7F500009385459989B748
:10494000B7F500009385C59925BF82965DBFEFF24C
:104950009F88B7F50000938585962A898329850568
:104960000144C131054A8357C9056344F4006FF01F
:10497000DF8993144400CE949C40A183BD8B63696E
:10498000FA00A6854A85313B01E5A6854A8555355D
:10499000050442044184C1BFEFF2FF832A892E84BB
:1049A0009304F00FB7F900007D141374F40F63142F
:1049B00094006FF09F859385C98F4A859D31EDB72F
:1049C000EFF21F8342257E25AA841D8C4204418478
:1049D00063478000CC242685C1376FF0BF83A8547D
:1049E000930500027D141131D5B7EFF27F805A395B
:1049F0005E252A847D1763CEE700B7F50000938516
:104A0000459405312285A1310C48228519396FF072
:104A10007F807A256399E70218499386170056A587
:104A2000BA978CA35A251C49BA97238007007E2584
:104A300085077EA583470506858B99E39305A0022C
:104A400028546536E9B7E374F7FC998FC207C1872C
:104A50003E86184876246344F004938716007EA4AB
:104A600036970CA35E2418488507C207C1835EA44D
:104A7000BA97238007000359E4007D1946244209B0
:104A800013590941634799027E249D8CC204C18455
:104A9000E35F90F62854A145FD14813EC5BFB29650
:104AA00036978306F7FFFD17C20714A3C1877D164B
:104AB0004DB7834704069305A002858B89C71C4820
:104AC000CA978385070028540509053645BF7A250E
:104AD0009387150093B7170001E785466389D50AC8
:104AE000EFF20FF156252A84631DD702FD5663802D
:104AF000D50285466397D5027D171C497AA54207E2
:104B000041835AA53E9723000700854571356FF014
:104B10006FF014483E978507369783060700A30F6A
:104B2000D7FE56247A24C207C1873386E640E3C203
:104B3000C7FEFD1656A4FD576387F50028547D1760
:104B40007AA4A1455D345A241C48BA9723800700F3
:104B50008314E4005E24285463C2F4029305000227
:104B6000693446247E2485049D8CC204C184E350AC
:104B700090FA2854A145FD148D3CC5BF1C48A6974A
:104B8000838507008504C2048D34C184E1B7828027
:104B9000EFF20FE641112A8F02C002C202C402C620
:104BA00081471395070141856344E502B70E002054
:104BB0000144014581470548938E8E22930FC0051D
:104BC000854293030002636CB40041016FF08FE4EF
:104BD000139827003298232008008507D9B7B30817
:104BE0008F0003830800A1EF638C660263175808E7
:104BF0006359E50013182500329823201801050594
:104C0000014803CE0E0003830800631AC30504089D
:104C1000138E1700A697238867FE9377FE0081A066
:104C2000E31108FE038818002380080001183338B8
:104C300000019308140013940801418069B703CE62
:104C40001E00E310C3FD130301013E93034EF3FE68
:104C500003C30E00E3176EFAFD1793F7F70F0383F4
:104C60000800E318F3FD03831800E30403FC930832
:104C700014001394080141806DBFE30573FA51B726
:104C8000EFF28FD43C4D8354C5050569B307F64058
:104C900091839D8CC204130C09F0AA892E8AB28AD2
:104CA000368BC180814B1309099093970B01C18307
:104CB00063E49700014405A813944B0056941C40EC
:104CC000B3F7870163942701850BC5B7A2854E858D
:104CD000C93A7DF92285A134AA8563190B00528552
:104CE000EFF08FDE75F122856FF08FD15A865285F5
:104CF000EF60300DC5BF9C4115470145A183B90741
:104D0000BD8B636DF7023D671307478E8A07BA971D
:104D100098439C45028788438280039507008280E0
:104D20000385070082803E858280D843014519C7EC
:104D3000EFF20FCC884302976FF0CFCD8280EFF275
:104D40008FC94111AE894400B7F500002A8431466D
:104D5000938505B52685EF600079CE852285613F74
:104D600083A549002A892285EFF0BF8BB7F50000A3
:104D7000938545B12285EFF0DF8A83A709001547A7
:104D8000A183BD8B639DE702B7F40000938584B1D6
:104D90002285EFF01F89CA852285EFF09F889385D1
:104DA00084B12285EFF0FF87B7F500009385850277
:104DB0002285EFF01F874A8541016FF00FC5A68558
:104DC0004A85EFF01F9AB385A440AD052285EFF028
:104DD0005F85B7F50000938585B42285EFF07F8469
:104DE0008147130600032D47B386F40090A2850780
:104DF000E39CE7FEA6854A85EFF09F8EA68555B712
:104E0000EFF20FBF2A840CC18845054711CD8307F7
:104E1000050099CB76388547014763F7D7000C4CDE
:104E2000EFF08FCA1337150083470406B7F500006B
:104E30009385C59AF99BD98F2300F4062285EFF05C
:104E40004FFE83470406858B81CBB7F50000938521
:104E5000859B2285EFF0EFFC6FF0CFBBEFF24FB9EF
:104E6000834705060CC92A8493E717002300F5063B
:104E700099473356F60223260500232005002328F0
:104E80000504231A05049307C5031307050552B942
:104E9000B2958CC39107B295E39DE7FE3D669307FB
:104EA000C6B53CCC83D7C1833757002093068724EF
:104EB000231EF404130787248147954588420DE596
:104EC0008A07BA9780C3B7F5000081461306C6B5B6
:104ED0009385C59322856D33AA8522851537228552
:104EE000EFF0EFF66FF00FB385079106E398B7FC8C
:104EF000D9BFEFF24FAE8347050698412A8493E766
:104F000027002300F5068567938707F0F98FAE89A0
:104F1000C9E3416A8144930A20027D1A81A09397D4
:104F20002400A297D84B83060700639756012300FD
:104F30000700D84B0507D8CB03A947014A85EF6086
:104F40002067337545017D152A998307090063940D
:104F50005701230009008504C204C1806A38E3E0D8
:104F6000A4FC83A7890093054401829783A70900C5
:104F7000AA841397270163460700AA852285EFF0CC
:104F80001F84834704062685F59B2300F4066FF0F3
:104F9000CFA7930600106398D70072399306450196
:104FA000EF00807DE1B7218339073D8B954663E5AE
:104FB000E60071338144F1B7938707808144F1F3B0
:104FC0008135C1B7EFF2CFA283470506ED9B2300E1
:104FD000F506EFF09FA16FF0EFA35A2563050710C8
:104FE000EFF20FA11C492A84BA972380070083445B
:104FF00005060329050193F71400CDCF8357050556
:10500000231A05048354250589CF914799C09387B6
:10501000F4FFB1078A07A297C847CA85EFF0CFAA65
:105020001DCDB1048A04A294C844CA85EFF0CFD93B
:1050300011C58357240585072319F40483570405F4
:1050400015478507C207C183636BF7042318F4046F
:1050500003572405914763F4E700231904044E2401
:1050600008482147930600021306440115364205FD
:1050700041816AB8232604000DC1B7F5000093856D
:1050800085022285EFF0EFD94C48304C81462285CD
:10509000C53EAA8501C92285A93D6FF0AF972318A7
:1050A000E4047DB7B7F50000938505902285EFF005
:1050B0004FD7E5B71C414A858C47EFF0EFA019EDBB
:1050C00093E41400B7F50000230094069385859BB4
:1050D0002285EFF00FD523260400C1B7B7F50000F5
:1050E00093854591F5B78280EFF28F908316450541
:1050F000035705052A849387F6FF231AF50483577F
:10510000250563F3E700BA87139707014183330747
:10511000E0406346D700B307F040231AF404228529
:10512000EFF01F8A0317440509E7232604006FF0F8
:105130006F8E8357240508489507BA971547B3E73C
:10514000E702B1078A07A297CC47EFF0EFC74AA45E
:1051500079DD0C486AA42285EFF0AFCCC9BFEFF22D
:105160002F89835745052A848507C207C187231ADB
:10517000F5046356F000231A05046FF0AF89EFF0D1
:105180003F840317440501E723260400FDB7835736
:10519000240508489507BA971547B3E7E702B10712
:1051A0008A07A297CC47EFF02FC24AA479D50C48C2
:1051B0006AA42285EFF0EFC6C9B77A255E25637031
:1051C000F702EFF2EF821C499306170076A5BA9713
:1051D000838507002855EFF04FC16FF0AF838280C1
:1051E0007E2589CFEFF2CF802A842855A145EFF0A4
:1051F000CFBF7E24FD177EA46FF0CF818280EFE2C7
:10520000BFFC5A252A8401EBEFF06FF42285EFF002
:105210000FC46FE0FFFE1C49835A45038149BA97CA
:1052200023800700032A850501498144054BB7FB0C
:1052300000008357C40563CEF904E30C09FC8547DD
:105240006315F9002285EFF0AFF79204832904017A
:10525000D2942685EFF0AFCCAA854E85EFF0CFB67D
:105260004AA4854763FB2701A6852285EFF06FDC02
:105270002285EFF0CFBD231654015A241C48228505
:10528000BA97238007005E240C487EA4EFF06FB924
:1052900049B7139C4900529CE2852285EFF06FC00C
:1052A00041E96285832C0401EFF06FC781473387A2
:1052B000FC008306070081CA3307F50003070700D7
:1052C00019C3638CE6065A246314F706630B0904BA
:1052D0006317690193858B022285EFF08FB49204E6
:1052E000D294A6852285EFF0CFD42685EFF02FC388
:1052F000AA846285EFF0AFC281473387F40083064A
:10530000070081CA3307F5000307070019C3638A42
:10531000E602568763F357013E87931A070193DA33
:105320000A010509939409014209C1801359090131
:105330008509C20993D90941EDBD8507C207C1831B
:10534000BDB78507C207C1834DBFEFE27FEA854540
:10535000EFF0EFF76FE01FECEFE29FE9FD55EFF0A4
:105360000FF76FE03FEBEFE2BFE82A84BD31228503
:10537000EFF0EFAD6FE01FEAEFE29FE74111AA8483
:105380002EC6EFF0EFA719C58547B2456397F40025
:10539000EFF0EFDB41016FE0FFE7E3DD97FE304D1B
:1053A000CC4181462A84EFF0BF8DAA8421C1B7F594
:1053B0000000938585922285EFF0AFA62685EFF059
:1053C0000FB6AA852285EFF0CFA537F90000930527
:1053D00089022285EFF0EFA4CC442285EFF06FA480
:1053E000930589022285EFF0CFA36DB7B7F50000D2
:1053F00093850590C5BFE1CDEFE29FDC1C5D416761
:10540000130707F07D8F2A84AE8A29EBB704FF00CB
:10541000FD8CA9E8370700FFF98F614981C7B70400
:1054200000FF41499307F00F130B89FF832C84057C
:10543000035CC405339D2701339B67018567814960
:10544000938D07F0938B079063C1890363830A06EA
:10545000232C0402D6852285B536A1A8930400F03A
:105460000149C9B7C174214975BF139A4900669AA9
:1054700083270A00B3F7B70163937705D2852285A6
:10548000EFF02FA20DED83274A00145C33F797004D
:105490006317D702B3962A0133F6A7016311D60228
:1054A000518F18DC6319090083278A0091EF232CA0
:1054B00004026FE0BFD4B3F76701FDD7814A8509C5
:1054C000C20993D9094149B722858297CDB7828015
:1054D0007C519DC3EFE2DFD141112A84854513053C
:1054E000F100829785476316F5008305F100228558
:1054F000193741016FE01FD28280EFE27FCFEFF0DA
:105500002F9019C5B7F500009385C59AEFF06F91FC
:105510006FE05FD003070500930770026313F70085
:105520000505830705001307C0056392E70283079B
:1055300015001307E0066388E702634CF7001307C2
:1055400000036384E702130720066382E7023E85B7
:10555000828013072007638EE70013074007E39854
:10556000E7FEA547EDB7A947DDB78147CDB7A1470E
:10557000F9BFB547E9BFEFE21FC6368441112A895A
:105580008386050015C6930740026386F6007D55A5
:1055900041016FE09FC783871500F5DB938706FD08
:1055A00093F7F70F25476367F7148544014725A054
:1055B00093077002639BF6008387150063880716C4
:1055C0002E85893F08C00145E1B79307D002FD54FD
:1055D0000547E395F6FC2E970306070093070003A3
:1055E00081466311F60283071700130680058D4676
:1055F00093F7F7FD6388C70013062004854663838D
:10560000C70089461306E00205078307F7FFB5EBDD
:105610009387F6FF13F7F70F894763EDE706938744
:105620000184BA970388070093874184BA978387D8
:10563000070013871400133717003E97BA950149E6
:1056400001451303E002254EA94E954883870500C6
:10565000A9E79147639DF608630B0908EF505026B0
:10566000AA894A85EF50D025AA854E85EF50A03FE4
:105670002A892685EF507018AA854A85EF508069DF
:1056800091B783070700E391C7F883071700ADDFE1
:105690009146BDBF8147294869BF85056387670477
:1056A00093F7F70F3307A802138507FD1375F50F5E
:1056B0006368AE00620561853A953309D90379B70D
:1056C0001386F7F91376F60F63E7C800938797FA06
:1056D00013958701CDB71386F7FB1376F60F0145B7
:1056E000E3ECC8FC938797FCE5B7054985B733859C
:1056F000A402C9BD930740026393F6028387150095
:1057000095C703268905850581464A85EFF04FD761
:10571000AA85E30E05E64A85EFF0EFDD65B5E3887F
:1057200006E6930720026393F60085052E858144E3
:105730009309C005130A200239A8639737032EC6C0
:10574000930A1500C13BB2452300A9005685850484
:10575000C2040505C1808307050033899500F1FF68
:10576000230009000CC085B563954701230009009B
:10577000F9BF2300F900E1BFEFE2FFA50111AE89F7
:105780003289AA8A1306000281450A85B684EFE0B1
:105790003FA903D42900130AF9FF3D88635324016C
:1057A000528491040149634F49019D477D5563E748
:1057B0008702BD679387C7CF0A043E941C4083A825
:1057C000890082878C40931629008A960146568567
:1057D0005D3391042DE10509F9B7829805616FE009
:1057E000DFA202458298DDBF924502458298FDB74F
:1057F0002246924502458298D5B7B2462246924546
:1058000002458298E1BF4247B24622469245024590
:105810008298E9B7D2474247B246224692450245AE
:1058200082986DBF6248D2474247B24622469245AF
:105830000245829865B77D5555B713D715408A053F
:10584000AA958147F11563C3E70082809041144116
:10585000850710C194C11105F5B711CD8307050067
:105860001307D0026389E70089C5938557FD93B577
:1058700015002E8582808545EDBFB757002083A790
:10588000871C1CC1B757002083A7C71C5CC183A716
:1058900041801CC583A781805CC5B757002083A7C2
:1058A000071D1CC9B757002083A7471D5CC9B75700
:1058B000002083A7471C1CCD82801841B7570020C9
:1058C00023A4E71C5841B757002023A6E71C18451E
:1058D00023A2E180584523A4E1801849B75700204E
:1058E00023A8E71C5849B757002023AAE71C184DE6
:1058F000B757002023A2E71C8280EFE27F8CBE8D89
:105900008327480001113AC6AA8CAE8A3289368BA9
:105910004284634BF00085472322F8002328F800D7
:10592000232A0800232C080063970C00FD542685C9
:1059300005616FE0BF8CE38B0AFE63140900E30787
:105940000BFE5C40E3D497FF13972700569718434C
:1059500071DF030607009306D0026318D600030721
:10596000170001E785075CC0D1B7630D0900830705
:1059700009001307D0026381E7021307B002094A46
:10598000638DE70037F500001305C5D1EF50D0282F
:10599000333AA000060A19A0054A0509814B630A9B
:1059A0000900030709009307A0036314F700050922
:1059B000854B04488547638AF40483294400139C7B
:1059C0002900569C032D0C00E3020DF663010B0227
:1059D00083070D001307D002638FE71E63890D0054
:1059E0001307B0026395E7008547638AF41E0448F5
:1059F00063110910850404C8EA9403870400FD5D5F
:105A0000631A0722054718C835A483294400139C4C
:105A10002900569C032D0C0063069A060947630E65
:105A2000EA06232A3401232C04005840EE859317FC
:105A30002700D69703AD07003AC86A85393D42472B
:105A400011C5631B0D0023223401CDB51C4C050785
:105A500058C085071CCCD1BF83060D001307D002A8
:105A6000E39DE6F483071D00A9FB044C6285A6852F
:105A7000E933938514006285C93385456285753B9A
:105A80005C48CDB5EE856A85C93B05F985092322B9
:105A900034012320A40144C459BDEE856A85753BB9
:105AA000E31D05F061B53308A5413308B841A1AA4B
:105AB000424542869A853ACC42CA1ACEEF507020AF
:105AC000524862471DE172431A85EF50702E5248CA
:105AD0006247630E0501FD576388FD009307F003DD
:105AE0005CC49304F003A1B5A68D850439AAA68DE4
:105AF0003DA2B3079D00838507004A85EF50D0295A
:105B0000938714003307FD0019E91CC883070700B9
:105B1000F1F785098547232234011CC8C1B7030664
:105B200015009305A00381476318B600830525007F
:105B300089476383C50085470306050050C40546B1
:105B40006389C7060946E397C7EAFD5D03060700B8
:105B50009306D0036313D60005078306070091E27E
:105B6000014718C0054718C88144630E0A0C21A2DA
:105B70000145030607009306D0036313D60005070B
:105B800083060700F9FE138719006349970314443D
:105B900099CAFD566381DD029307A00363940B004D
:105BA0009307F0035CC458C09304A003E3910BD89F
:105BB0000DBFFD5D7DBF83070500EDB703274C00DA
:105BC000854418C0054718C84DB76319D70A8144E2
:105BD0005DA04444A9BB8547E39BF4E004C8832D42
:105BE00004019305D003B307BD013E853EC8EF50C5
:105BF000B01A2A87E31905EA6A85EF50701B33074C
:105C0000AD003308B541FD5D8144139644005A96BA
:105C100003230600E31E03E87D56E38ACDDC93965A
:105C20004D00DA96D0428546E304D6F48945E30F69
:105C3000B6F014C82320040018488546E3170AF874
:105C4000631ED70281440329840163060902584870
:105C5000CA85938914000A07BA9A5685EFF0FFBDEA
:105C6000B30539015685EFF05FBDCE855685EFF05F
:105C7000DFBC832944018509CE9444C07D57E38A63
:105C8000EDF4B24799C323A0B70193974D003E9B13
:105C900083278B008324CB00E38B07C884C3814414
:105CA00079B1EFE2EFD479712A8448082EC632C464
:105CB00036C23AC0EFF07FBC024792462246B24558
:105CC0001308410181472285EFF03FC32A84480829
:105CD000EFF0BFBE228545616FE0CFD301A0B707CB
:105CE000EFBE37E700E0938707083CC701A0EFE26B
:105CF0002FD0EF108036EF109014EF108075B7356D
:105D00000240938505400145EF0090190145EF20C1
:105D100050586DDDEF00F0670545EF10001BDDBF4B
:105D2000B7170240984FB70600801367170098CF47
:105D3000D857558FD8D7D857B70600F8FD16758FA6
:105D4000D8D7D857B70600C9FD16758FD8D7D857FA
:105D5000B7060012558FD8D7D857B7060040558FD1
:105D6000D8D7D84B856693860680558FD8CBB7E7B2
:105D700000E0A38A07443707200023A4E7108280AD
:105D8000EFE20FC7EF003069420541856FE08FC831
:105D9000EFE20FC62E86AA85375500201305854CE5
:105DA000EFE0FF80420541856FE0CFC6EFE24FC4D0
:105DB0002E86AA85375500201305854CEFE04FF15C
:105DC000420541816FE00FC5EFE28FC2B755002059
:105DD00037550020130600409385054E1305854C6A
:105DE000EFE02FE037550020B76700001307C52507
:105DF000938707D83CD7B7550020B7670000938733
:105E000007D9130600209385852C1305C5257CD35F
:105E1000EFF0CF846FE00FC0B7160240D8421146B2
:105E2000318B9387C180630BC7022146630DC70284
:105E300037177A001307072098C3371702405843D3
:105E400011839376F7003707002013070700369772
:105E5000142398433357D70098C382803727B7005D
:105E6000130707B0D1BFD842D442416649833D8B66
:105E7000F18E1306270015CF3D47630FE602414719
:105E8000630FE602454781456313E6004146A1E200
:105E90003747024003270780418B0DC737177A0029
:105EA000130707203306C70290C3C1D9984305835F
:105EB00061B781454946E1BF85453546C9BF814542
:105EC0003D46F1B737173D0013070790E1BF37157F
:105ED000024058559316F700585563DF06041183A6
:105EE0003D8B930617003727B700130707B03357CA
:105EF000D70298C35455A182BD8A8DE295463307D7
:105F0000D702058398C337170240585794433D8BF7
:105F1000050733D7E60298C3984369B705456394EC
:105F2000A600E546E9BF3D456396A600D146338706
:105F3000E602C9BF8906E5BF3D8B930617003727E8
:105F4000B700130707B03357D702F1B7EFE24FAAF4
:105F5000B71702409843B706FFF0411113671700C7
:105F600098C3D84337060200758FD8C39843B70645
:105F7000F7FEFD16758F98C39843B706FCFFFD1614
:105F8000758F98C3D843B70601FFFD16758FD8C328
:105F90009843B70600ECFD16758F98C33707FF00CE
:105FA00098C723A6070202C402C69843C166558F4C
:105FB00098C3B716024005679C42F18F3EC6A247C0
:105FC00085073EC4B24781E7A247E397E7FEB717CC
:105FD00002409C431397E7006359070685473EC676
:105FE00032478547631FF704B7170240D843B70607
:105FF000C1FFFD16D8C3D843D8C3D84313670740A1
:10600000D8C3D843758FD8C3D843B7062900558F56
:10601000D8C39843B7060001558F98C39843931689
:106020006700E3DD06FED843B7160240719BD8C374
:10603000D84313672700D8C32147DC42B18BE39EC6
:10604000E7FED93B41016FE0EF9C02C651BF3D65C1
:10605000130545E282808D476307F5008947630891
:10606000F500014582803D65130585DA82803D6536
:106070001305C5D282803D65130585E382808D4777
:106080006307F50089476308F500014582803D6597
:10609000130505EC82803D65130545E48280EFE23F
:1060A0002F9593150601AA84C18113858185FD3939
:1060B000930600401386818595452685EF10B0151F
:1060C0006FE04F959147014563EEB706ADC5638715
:1060D000F5069385F5078605B767002093F5F50F5C
:1060E00093873758AE979023B76700209387275838
:1060F000BE958C21376500203768002089058147CF
:1061000079161307058E1308485793D6170063C8EE
:10611000C7003697230007001305058E8280B388D9
:10612000F500C29883C80800BA9689072380160133
:1061300093F7F70FD9BF13858184828037F500006C
:10614000130505FC82809D47639AF502EFE24F8AB2
:1061500005472388E18093060040B7570020138647
:1061600081859545238C071CEF10F00A37170040F6
:106170001E2393E717001EA36FE0CF898280EFE212
:106180002F87B75400209384A41D962041112A84A0
:106190008DCE83C7018195CB138441811040930537
:1061A00050080145EF10A079144093878185239012
:1061B0000400138707406398E600938707601CC0BC
:1061C00041016FE02F8518C0E5BF228532C6EF2060
:1061D000300832463375A60211E909CA81460146E4
:1061E000930550082285EF108075D9BFB75700205E
:1061F000238C071CF1B785476390F51418321C22D5
:1062000022075D8F3C22C2075D8F3C32E207D98FA7
:106210008DC7B756004093860680D62603A7C18057
:10622000C206C18663C706040583B357F702375712
:106230000040C207C1832314F780782275CFB75777
:1062400000409546938707806317D702DA27B16627
:10625000558FDAA75C32BDE7375700408357C780B8
:10626000C207C18393F7F7BFC207C1832316F78024
:106270009DA8799B5DBF99466319D700DA27A1666F
:106280004A074983DAA7DA27E1B79D466319D700A1
:10629000DA2791664A074983DAA7DA2755BFA54668
:1062A0006319D700DA2785664A074983DAA7DA2710
:1062B00045B7DA274A074983DAA7D6277D777D17BE
:1062C000758F41BF0547639CE702B757004003D76E
:1062D000C780136707402396E78003D7C7801367FB
:1062E00007202396E7805C228DEF375700408356C6
:1062F0000781F577FD17F58F2318F780828009470E
:10630000E393E7FE375700408357C78093E7074082
:106310002316F7808357C780C207C18393F7F7DF3F
:10632000A1B70547639BE700B757004003D7078134
:106330008D66558F2398E78082800947E39EE7FEAC
:10634000B757004083D6078175777D17758F2398DF
:10635000E78003D707818966E9BFB5ED1C221307E3
:106360000008639AE7063822058B39C314323717C1
:10637000014013070780858A95CA1CCB3717014057
:1063800083270780B706003092079183D58F23209B
:10639000F7803C22898B9DCB1832B7170140938739
:1063A00007C0098B0DC30567D8CB82805CCBF9B7DA
:1063B000371701402328F78083270780B70600801E
:1063C00092079183E1B7056798CB8280B7170140A8
:1063D000056723AAE7C0828095E59307100863113B
:1063E000F602B717014083A58780938707C09C47B3
:1063F0009D818589139747016354070093E56500E4
:106400002E8582808145EDBF63980512EFD2BFDCF7
:106410003284B6843E8AD9C22E89B7140140856978
:10642000631449016FD07FDE83A7C48093F7070808
:1064300081EB93771400138704C0B9CB232A37016B
:106440001145EF00302A83A7C480114593C7070880
:1064500023A6F480EF001029938704C0D847137750
:10646000070811E7137714001DC723AA3701114548
:10647000EF00502783A7C4801145050993C707087B
:1064800023A6F480EF00102605801379F90F49BF89
:106490002328370175B723A83701D1BF21461D8EA8
:1064A0003314C4001374F40F371901408569E38B6A
:1064B00044F78327C98093F7070891EB931784016A
:1064C000E187130709C063D30706232A3701114563
:1064D000EF0050218327C9801145930A098093C793
:1064E00007082326F980EF00F01F8327C98093F760
:1064F000070891EB93178401E187130709C063DA5A
:106500000702232A37011145EF00D01D8327C980D8
:106510001145060493C707082326F9808504EF0078
:10652000701C1374F40F93F4F40F51B72328370140
:1065300079BF23283701C1BF8280EFD2DFC9014470
:10654000639B0510AE843284B6893A8A631B0610B9
:10655000856A37190140938A0A80638E440F11457A
:10656000EF0050188327C9801145060493C7070818
:106570002326F980EF0010178327C9801374F40FC6
:10658000130B09809D83858B63893701832789C01D
:10659000B3F7570199C3136414001145EF00901429
:1065A0000327C980134707082326E9808327C9806A
:1065B0009D83858B6389F900832789C0B3F75701D1
:1065C000C5CB1364140011458504EF00B01193F49A
:1065D000F40F61B71145EF00F01083A7CA80114591
:1065E000858093C7070823A6FA80EF00B00F83A722
:1065F000CA809D83858B638B370183A78AC0B3F7DD
:10660000670189C793E404F893F4F40F1145EF0090
:10661000700D03A7CA801347070823A6EA8083A743
:10662000CA809D83858B6389F90083A78AC0B3F7ED
:1066300067018DC793E4040811450509EF00900A2E
:106640001379F90FE31849F921443304244133D471
:1066500084401374F40F22856FD03FBB93F4F4078A
:10666000E1BF056B0149B71A0140130B0B80D9BF7D
:106670001374E40F89BFEFD2BFB7EF1080046FD05F
:106680007FB98547639DF500B7070240D84F799BD6
:10669000D8CF90D794D3D84F13671700D8CF828024
:1066A000EFD21FB52A840145AE84EF0010320545B4
:1066B000EF00B0310945EF0050310545EF0090394A
:1066C0000945EF003039B75700202383071EEF003C
:1066D000703EB71602409C4EB715014013070008E4
:1066E00093E7C7009CCE23A8E580056623AAC5C012
:1066F0001305068023A8A5C003A70580370800302E
:10670000938705C0120711833367070123A0E58033
:1067100003A745C0B705F1FFFD156D8FB705030051
:106720004D8FD8C3D843BD65370804004D8FD8C3FB
:10673000D84E130606B033670701D8CE984E1367BC
:10674000970098CEB7060140D8421377F7FCD8C21D
:10675000D4437D771308F70FB3F60601D18ED4C367
:1067600088CBD44313071795CD8ED4C3B7570040B9
:1067700083D6C78093870780758FDAA7DA271367D8
:10678000C701DAA7962B75777D17758F9AABDA2B31
:10679000420741831377F7CF42074183DAABDA2B05
:1067A0001367070CDAAB03A7C180DE27C207C187D6
:1067B00063C50722B787030093870740B357F702E3
:1067C000C207B7550040C1832394F580130300FA34
:1067D000B7E600E0A38B6642B707800023A2F6105D
:1067E000371602405C4A138805809385458093E7FD
:1067F00017005CCAB707024023AE070083A8C70191
:10680000130500063769002093E8280923AE170115
:1068100023A00702CCD323A4070223A8070283A83E
:10682000070393E8680A23A81703856893880880FC
:1068300023AA17038CDFB765002093850590CCDF72
:10684000238E6640B705001023A0B610A38EA64085
:10685000B708002023A016118C5B93E515008CDB94
:106860008355C8008967DD8D2316B8005C4E371844
:106870000140B70510FFB3E717015CCE1C4EFD15B4
:1068800093E747001CCE83270880ED8F2320F880F4
:10689000B777004083A50740370802E07D18B3F5BD
:1068A000050123A0B74083A507403708020093885D
:1068B0000740B3E5050123A0B74083A50740416821
:1068C000B3E5050123A0B740B765002093850557C0
:1068D000BC3103C82500BD65A207B3E7070123AAA1
:1068E000F8005C4E938585FC93E707015CCEB717F3
:1068F00000402390070092231366460892A3239238
:10690000070023960700D22713661600D2A7374642
:106910000F00130606243357C7027D174207418331
:106920009AB71307703EDAB7239207022383A6446F
:106930009307000423A4F6102285EF20A004B76576
:10694000002093074957094793061008014693858D
:1069500005102285EF206021AA852285EF2060079F
:10696000B76500209307495711479306300805463D
:106970009385C5112285EF20401FAA852285EF202F
:106980004005B7650020938585132285EF20104CC4
:10699000AA852285EF20E003B76500209385451581
:1069A0002285EF20B04AAA852285EF208002228529
:1069B00093850182EF20E004228593858181EF2079
:1069C00040043766000013066614A6852285EF2072
:1069D000C00DEFF06FBF6FD0FF83F1669377E7FFD5
:1069E00093860620B3D7D702E1BB0145EF20202BC9
:1069F000371700401E2BC207C183F99BC207C18312
:106A00001EAB73002030EFD20FFDB7070240C05B12
:106A1000856637590020938606808357491E338444
:106A200086404204B76900201386099041803E9653
:106A30001309491E6365F4021D8C93140401C1807F
:106A40000547A68685450145EF20802E03540900A1
:106A500026941374F47F231089006FD00FFB9D8E52
:106A6000C206C182B304D400014785450145EF2029
:106A7000202CC204C1800547A28613860990D9B78D
:106A8000B7570040411122C61384078083D707807F
:106A9000C18B99C35E20853FB757004003D707805D
:106AA000856793876780F98F91C35E2037570040D1
:106AB000835707803244C207C18393F7F7F9C207AF
:106AC000C1832310F780410173002030B7070240D3
:106AD0009C4393F7070289C785450145EF20803B1A
:106AE000370702405C4393E7070F5CC37300203015
:106AF000B70702409C4393F7076099C7B757004018
:106B000093870780DE230137B7060240DC42056722
:106B1000130707F0D98FDCC273002030B75700206D
:106B20009387C71D01C6054798A38280238007006D
:106B30008280B757002083C7C71D93F7F70FA9CBF3
:106B4000EFD20FEBB75400209384A41D96208DCE76
:106B5000B75700209387871D98231DE71384418131
:106B60001040054793055008014598A3EF00305D9C
:106B7000144093878185239004001387074063970F
:106B8000E600938707601CC06FD0CFE818C0EDBF48
:106B90008280EFD2EFE5EF00C07515E53757002092
:106BA0001307671E1C2385078D8B1CA30947638C65
:106BB000E7040D47638EE704054705456383E70453
:106BC000512D0945412D375700209306071E9C4241
:106BD0001304071E85079CC29306803EB3F7D702B5
:106BE00099E30145792D1C405147B3F7E70299E736
:106BF000375500201305C525EFE09F8D1D3F6FD051
:106C00006FE1692B7DBF0545B1250945412B65BF66
:106C100005456923DDBFEFD2AFDDB754002083D631
:106C2000A41D93070020958FC20723880180C1838C
:106C3000138901819384A41D2E8463E3F5003E84AF
:106C400083A7418142044180AA8522863385D700EB
:106C5000EF4070099E20A2979EA0E13D854723004A
:106C6000F90022856FD00FDBEFD28FD837F5000007
:106C70001305C5FEC12937F5000013050502D9210A
:106C800037F500001305C502752937F50000130517
:106C900045054D2937F500001305050865216FD01E
:106CA0006FD7EFD2EFD1B7F7000037FB0000B7FB8B
:106CB000000083ACC7F3B7F7000003298BF48329E6
:106CC000CBF403AA0BF583AA4BF503AD07F401112E
:106CD0002A8CAE8402CE014437080020B7F70000AA
:106CE000FD5D93060801138687FA7808A6856285FC
:106CF000EFE03FFBB7F70000370800209308D0060D
:106D00006319B50311E08D37B757002023A4071C82
:106D1000B757002023A6071C0547B707002023A666
:106D2000E7221307F00323A4E180228505616FD0D9
:106D3000EFCC0544E30715FB930760076308F500F4
:106D400093078006631CF50A053779B7B75700200B
:106D500003A5871CB77D0040EF40A06BE685EF30B0
:106D6000707BEF40C0424A86CE86EF30200F5286BD
:106D7000D686EF30E069EF30B03B4205418123AA6F
:106D8000AD4083A74D413767002013070757C2075F
:106D9000C1833CA3A1833CB3EF00B01203A54D41D6
:106DA000EF30F04503268BF48326CBF4EF304066BA
:106DB00003A60BF583A64BF5EF30400AAE862A8674
:106DC000EF20D016EF406047EA85AA8DEF3090742F
:106DD000EF40401D42054181130640063376C5024F
:106DE0006E8532C6EF40001C32469315050137F51B
:106DF0000000C181130585F5B126F9BD8C4037F53A
:106E00000000130585F73D2E0944F9B513878182EB
:106E10001C43B7760020938606953E95636BD5009C
:106E2000B78600209386068063E5A60008C33E85EA
:106E30008280FD57EDBF01A097A1FF1F938101BF85
:106E4000171100201301011C179500001305059A66
:106E50009795FF1F9385051B1386818563FAC500EF
:106E60008322050023A0550011059105E3EAC5FE24
:106E700017E5FF1F1305453597050020938585AD60
:106E80006377B500232005001105E36DB5FEFD42D3
:106E9000739002BCAD4273904280B762000093824F
:106EA00082087390023097D2FFFF9382E21593E23B
:106EB000320073905230EFF06F8997F2FFFF9382A8
:106EC00042E3739012347300203081479D666393D0
:106ED000A700828013870608010001007D176DFF5F
:106EE0008507F5B701476313A7008280C1470100FA
:106EF000FD1793F7F70FE5FF0507F5B7B717024042
:106F0000984F9166558F98CF984FB7060004136736
:106F1000570098CFB7070140D84313674700D8C33D
:106F2000D84F558FD8CFB716014083A706803707B3
:106F300000F17D17F98F3707000BD98F23A0F6805A
:106F4000B747014083D6C7807D771307379F758F7A
:106F50002396E78003D7C780136787002396E780CF
:106F600083D6078175777D17758F2398E78003D7C0
:106F70004781420741831377F7CF42074183239A22
:106F8000E78003D7C78083A6C1804207E5474187D2
:106F9000B387D7026349070A8983B74601409386BE
:106FA0000680D626C206C18633D5A70293074006BF
:106FB0003357F5023375F502120763C80608120548
:106FC000130525033355F5029377F50033E5E70004
:106FD0004205B746014041812394A68037570020DF
:106FE0002304071E37160240375700202315071EBB
:106FF000584A93870680938646801367170058CABD
:107000009A2A096613060609136707089AAA37071A
:10701000024070C32324070474C7B7E600E0238F3F
:1070200006403706004023A0C610744393E62600AE
:1070300074C3DA278966558FDAA7B757002005474A
:10704000A383E71E8280858389BF0E051305250370
:107050003355F5021D89598DA5BFEFD26F99716522
:1070600013050520EFF09FE96FD0CF9AB7570020A6
:1070700083C7771EA1C7B75700209387A71E8E230B
:1070800095CD37070240304715EA7043799A70C3AF
:107090002CC72390070093870183904330CB744320
:1070A00093E6160074C337670020130707176316AB
:1070B000E600376700201307073798C38280B707B9
:1070C000024098439316270163DC0600D843896683
:1070D000558FD8C3B757002083C7871E91E37937F0
:1070E00073002030EFD2CF90B75400201387841E56
:1070F0001C23375900209384841E85071CA3035743
:10710000A91E930700201309A91E998FC207C183E6
:107110002E8463E3F5003E8483A70183420441800B
:10712000AA8522863385E700EF40E03B83570900BC
:10713000A2972310F9001D3F9C202285FD179CA0DB
:107140006FD04F8D29712322B1122324C11223261F
:10715000D1122A865412930500100808232E11100C
:10716000232C81102328E112232AF112232C01134E
:10717000232E111336C6EF50E0261314050141806B
:10718000A28508088537A2850808EFF0DFA82285C8
:107190008320C1110324811131618280894763E515
:1071A000A7021387C18493171500BA979A2309CFB2
:1071B0009317250037050020130505053E9514415A
:1071C0008547B397E7009CCA8280894763E3A70895
:1071D000EFD20F82BD67131725009387870AB71573
:1071E0000240BA97944D9C433A8637070020D58FCA
:1071F0009386C1849CCD93171500B6979E231307E1
:10720000070532979D46184363E4F60210438A0748
:10721000BD46B396F60093C6F6FFF18E14C3104335
:107220008D46B397F600D18F1CC38D3F6FC09FFE74
:10723000E11750438A07BD46B396F60093C6F6FFA2
:10724000F18E54C350438D46B397F600D18F5CC383
:10725000E9BF8280894763E5A7021387C18493173A
:107260001500BA979A2309CF9317250037050020F8
:10727000130505053E9514418547B397E700DCCA21
:107280008280894763E7A702931715001387C1849B
:10729000BA97962399CE13172500370500201305BA
:1072A00005053A9518418547B397D7005047B18FE8
:1072B0005CC78280371702401C4FFD769386F60F1D
:1072C00093E707011CCFB71701409843758F98C308
:1072D0009843856693860680558F98C3D847136771
:1072E0004700D8C78280B7170140884709810589C0
:1072F0008280EFC2FFEF9384C182942005471384FC
:10730000C182639FE600C53701ED29452380040053
:10731000EFF0BFBBC93FB337A0003E856FC09FEF02
:10732000D93785477DD91CA0CDBF011123040100A9
:1073300025471C846378F70423040100A5462146F1
:107340001C8463FCF6062315010023040100954606
:107350001C8463FEF60C38853C8599460D46B3F7D0
:10736000D702056513050580B3D7C7023357D70287
:10737000BA97C207C1837C853C8505611D8D420596
:10738000418582801C4593E787001CC51C45A18B65
:10739000F5FF1C4593E747001CC51C45918BF5FF85
:1073A00074451C8410108607B2972396D7FE1C8460
:1073B000850793F7F70F5C84ADBFA30401009C849D
:1073C0006378F6001C84850793F7F70F5C848DBF04
:1073D00098849C840C100607850786072E97AE9725
:1073E0000357C7FE83D7C7FE63FDE7029C84860769
:1073F000AE9783D7C7FE7C859C84988485078607D3
:10740000AE9783D5C7FE931717001810BA97239627
:10741000B7FE9C8438850C1085078607AE972396A7
:10742000E7FE9C84850793F7F70FDC8449BF1C8433
:107430001010388589078607B29783D7C7FEBA9799
:10744000C207C1837C851C84850793F7F70F5C8492
:1074500001B7EFC2FFD9B7170240984FB166372482
:1074600001401367072198CFD84B054513671700D4
:10747000D8CBD843558FD8C3B71601409C42457727
:107480007D17F98F09679CC21307075AB706024098
:1074900098C60D47D8C61307C44498CA375700206A
:1074A0001307071F13040440D8CA5C403707F1FFD5
:1074B0007D17F98F5CC01C447D771307F77F93E736
:1074C00027001CC45C4093E707105CC01C44F98F84
:1074D0001CC41C4437070E00D98F1CC45C543707EA
:1074E00010FF7D17F98F37072000D98F5CD45C44DB
:1074F0000567130707E0D98F5CC45C4437071C009D
:10750000D98F5CC45C443707E000D98F5CC45C58F9
:1075100061771307F73F819B93E7D7005CD85C58EE
:1075200093F7F7C193E707205CD85C58F98F116790
:1075300013070740D98F5CD81C4493E717101CC46D
:10754000EFF0BF985C40370700FC7D17F98F5CC0F7
:107550001C44B726014093E787001CC403A786405C
:10756000218B6DFF03A786401367470023A4E640E5
:10757000372701408327874013040740918BFDFB89
:107580002285EFF09FDAB75700202396A71E1C44F0
:1075900037078000D98F1CC4370702401C4793E788
:1075A00017001CC71C4437075000D98F1CC46FC07C
:1075B0007FC6B767002001470145938707579306A9
:1075C00060103386E7001022050732951375F50F1A
:1075D000E319D7FE83C757101D8D1375F50F8280F1
:1075E000EFC21FC111710122B765002093840557B6
:1075F00013060010938505570A85EF30D06E374487
:107600000008130504E031228A85130504E00D2AE1
:10761000130404F013060010A2850A85EF30B06C45
:1076200083A7041022853EC083D744107C82D520D6
:107630008A8522853122F92011616FC0BFBDB757FD
:10764000002003C7971F2DEFEFC2FFB8376400205B
:10765000B745000813066010938505E0130504572D
:107660009389971F13090457EF30F0670347090008
:10767000B7540020BD47130A04579384841F631F27
:10768000F700EFF01FF3834759106399A700854770
:107690009CA085472380F9006FC03FB7BD651306E6
:1076A00060109385450B1305045723800400EF30C9
:1076B0009063EFF01FF0A302AA10EFF07FF2C1BFBA
:1076C0008280EFC2FFB2EFF0DFEEB7670020938752
:1076D000075703C757106306A700A382A710EFF050
:1076E0003FF06FC03FB3B7066745B72702409386A8
:1076F00036123797EFCDD4C31307B79AD8C3D4D374
:10770000D8D38280372702401C4BA166D58F1CCB73
:107710008280B7270240984BB7060200137505F028
:10772000558F98CBC8CB984B1367070498CBD84795
:10773000058B75FF984B8176FD16758F98CB8280EF
:10774000372702401C4BC166137505F0D58F1CCB43
:107750005C47858BF5FF372702405C47898BF5FF37
:107760003727024013060010B386F50003A8060071
:10777000B306F50023A006015447898AF5FE910758
:10778000E394C7FE1C4BB7062000D58F1CCBB72750
:107790000240D847058B75FF984BC176FD16758F53
:1077A00098CB8280EFC2DFA4EFE08FD7373702405B
:1077B000A3000740C146A300D7402300074093061B
:1077C00090022300D740FD562305D74023010740F0
:1077D000930630022301D740FD562328D740232AA1
:1077E0000740232C074083470740014593E70701E3
:1077F0002300F7406FC01FA289E5B7370240A3817D
:107800000740B7670020938787688CA7014582806F
:107810000D458280BC21D831D021A8311398870131
:10782000220793F6F707518FB76700201358884156
:107830001377F77F0D891396260093878768634D2A
:107840000804514833880603C2972396E714054776
:107850002387A7142388E714B737024003A50741FD
:10786000138806018546B3960601C98E23A8D74022
:107870009387B74DB2971307200298A3B7370240FA
:10788000938787493E96DC31D8210145A207D98FDD
:1078900093F7F77F1EA28280514833880603C29770
:1078A000DAA7054798ABE8A7B737024003A8074116
:1078B0000547B316D700B3E6060123A8D740938740
:1078C000A74D4DBF0145828093F7F507E205E1859D
:1078D00063C5050281EBB73702400D47A38DE74C26
:1078E00001458280373702408A071307B74DBA97A0
:1078F00098231367370098A3E5B799E7B737024095
:107900000D47238DE74CE9BF373702408A0713073D
:10791000A74DF1BF93F7F507E205E1858A073737F1
:10792000024063C905001307B74DBA9723800700CB
:10793000014582801307A74DCDBF0145828093F595
:10794000F50719E27D55B9EAD147B387F5023767E4
:107950000020130787687955BA9703C80701630F9A
:107960000802137836007555631A0802D0CB94CFFD
:1079700023AE0700B1E185E6B7370240239C074CF0
:10798000B757002083C7B71F3737024093F7F70F69
:10799000B337F0008E07230DF74C014582805E2738
:1079A00063F3F600B687C20737370240C183231C52
:1079B000F74C232EC740E9B737350240139725000F
:1079C0001305854D3A95FD158DEA23100500B7374F
:1079D00002409387A74D3E971C23B76600209386ED
:1079E0008667B69513F6470E9C2193F7F70FB337CA
:1079F000F0008E07D18F1CA34DB7DE2763F3F6008E
:107A0000B687C207C1831EA1B73702409387874557
:107A1000BA9790C36DBF93F5F50719E27D55B9EAA2
:107A2000D1473387F502B767002093878768795578
:107A3000BA9703C707151DCF1377360075551DEB91
:107A400023AAC71423ACD71423AE07148DE5373708
:107A5000024013070740A14799CA50CFB7570020EB
:107A600083C7A71F93F7F70FB337F0008E07A30D57
:107A7000F70C01458280B7370240FD158A05138750
:107A800007422E979387F74D10C3BE959C2193F71D
:107A9000C70F9CA1F9BF4111B737024022C626C4C7
:107AA0004AC21384074038241377F70F93762700D0
:107AB000638406222C3438348946BD8911830D8BAA
:107AC000631FD7123764002013048468D1E11C4C73
:107AD0005A24B7540020544C9384B41F63E4E7063F
:107AE000998F1CCC9C20369758CC93C71700504CCC
:107AF0009305000801459CA0EF0050631C2493F7F8
:107B0000F70F91CB1824B73702401377F70FA381F3
:107B1000E740230404007A20B737024093870740E8
:107B200009C70307040063470700C0CFA38D070CF4
:107B300085479CA0B737024009472385E7409387D4
:107B4000074045AAB6975CCC232C0400854745B76F
:107B5000139825001385A74D42951821B76600207C
:107B60001383F5FF1377470E1367270018A15147BA
:107B70003387E502938686673A94104C5A2483280B
:107B8000C401637FC704BA98338E66004C48232E25
:107B9000140183480E00BA95198E93C81800938774
:107BA000874D4CC810CC23001E01C2976373E600BA
:107BB0003287420741839AA3B737024093878745AC
:107BC0003E982320B8001C219A9613F7470E9C225A
:107BD00093F7F70FB337F0008E07D98F1CA199BF29
:107BE0009A969C22469650CC93C71700232C0400EB
:107BF00093E5050801459CA2EF00505325BF1DFBEE
:107C0000A9ED0359C400B76400209384846803A6D7
:107C1000C41583A78415420913590901B387274165
:107C20004A9623ACF41423AEC4140145EF00D0529D
:107C3000B75700209387A71F631C090044CCA30DEE
:107C4000040C054798A3B7570020A38DE71EDDB5A8
:107C500098231347170098A3F1BD3834137707040E
:107C6000E30A07EC139825009386B74DC296982235
:107C70001377C70F1367270098A251473386E50291
:107C8000376700204A2413078768420541813297ED
:107C9000832847150326C71503238715AA982A9614
:107CA0003303A340232A1715232EC714232C67144C
:107CB0000357C7146364E500631603000145EF0032
:107CC000B0498DBD9387C7413E98232018019C225F
:107CD00093F7C70F9CA2B9BD937607028DC2B76513
:107CE0000020938585680145EF00901893070002F6
:107CF0003CA43244A2441249410173002030058B58
:107D00006DDB4167050718C8231C040C0947230DC8
:107D1000E40CB75600200547A38DE61EB756002099
:107D2000238DE61EB76600209387C74D01471306D3
:107D3000200293868667BD4523900700B0A3B0B3A9
:107D40003385E6002300050005079107E316B7FE1B
:107D500037650020130485681306C0288145130584
:107D60008568EFC0EFCB0145EF00300AB73702401E
:107D700023AE8740A38D074C0547C1B3EFC2AFC503
:107D80009304C033B3049502130AF00C9389810560
:107D90002A89AE8A328B0144330A4503CE9483C7C5
:107DA00044276364F4006FC04FC6B3078A0093870B
:107DB00087088A07CE97DC4363020B0281CFD8473E
:107DC00011CB83462B009C2F6396F6005A86D685EE
:107DD0004A85029705041374F40FD1B7E5DFDC4739
:107DE000F5DB0146D6854A858297EDB7EFC24FC0D5
:107DF000D431D821BC21A206D98E1397870113F85C
:107E0000F67FAD8661878D8A1386810563580702E8
:107E100013F7F707B1473307F7029307C033B307E8
:107E2000F5023E97B307E600239D0727A38CD726CC
:107E3000EFF05F9E133515006FC0CFBD3147B3879C
:107E4000E7021307C0333307E502BA97B297239DC1
:107E5000072DA38CD72CE9BFEFC28FB99307C0338E
:107E60003307F50293878105BA979847D44732972D
:107E7000918E98C7D4C73A8699E6D82B19CB238A16
:107E800007008146014693050008EFF05FAB6FC025
:107E90006FB8FA236DDF83870700E3DA07FE8146B8
:107EA00001468145EFF03FB7DDB7EFC26FB183CA3E
:107EB000050013070002411193F70A062A84AE89D0
:107EC000B28436896386E754130700046389E75C4C
:107ED00099EB93FA3A0085466386DA3463870A00A1
:107EE00089476389FA4C814421AE03C71900A5472D
:107EF000AE21E3EAE7FEBD66931727009386C61B13
:107F0000B6979C4382879306C033B306D5021C42C2
:107F100023800700138781059387810536970347E0
:107F2000E72111C7144298221367170098A213077C
:107F3000C0333304E402A29783C7072291C7984055
:107F40001C2393E727001CA39C40A38007008947BC
:107F50000DAA85476393F5028D46938781056311CA
:107F6000D7021307C0333307E502BA972380B7223D
:107F700083A78733A5452285829723200900FDAE7C
:107F80001307C0333307E502A945BA9723800722B8
:107F900083A78733CDB79307C0333307F5029387A1
:107FA000810593F5F50FBA97A38EB720EFF0DF8424
:107FB000E9B793D78500FD1793F7F70F3947E364C7
:107FC000F7F23D678A071307471EBA979C438287DB
:107FD000EFF01F849307C033B307F40213848105C5
:107FE0003E941C4C2301A4229C43829735E1E5BDBD
:107FF0009307C033B307F502138481053E941C4CEC
:1080000003452422DC438297E30F05EC3C31382101
:10801000A207D98F78311987058B230FE420783197
:108020001587058BA30FE42088C0A1A89307C03350
:10803000B307F5021384810593F9F50F1307E00EDA
:108040003E941C4C6398E900DC4BE38E07E88843C0
:108050001C21D9BF034524229C4BCE8582972A84BC
:10806000E30305E8639209029C40114798A39C40F2
:108070000D4798B39C401821B8A39C401831B8B361
:1080800091472320F900DDACEF3080524205418159
:10809000930715008607C207C18313070020E36416
:1080A000F7E498408D461CA3984014B389460147D5
:1080B000131607014182E376A6FC9040B305E40065
:1080C0008C21369605070CA290403696A300060038
:1080D0008906F9BF9307C033B307F50213848105FE
:1080E0003E941C4C034524229C4701B79307C033A0
:1080F000B307F502138481053E941C4C03452422EA
:10810000DC478297E30105DE3C313821A207D98F95
:1081100021BF9307C033B307F502138481053E9452
:108120001C4C9C53E38107DC8843DC43F5BD93077B
:10813000C033B307F5021384810518423E94834788
:10814000C4211CA3854735BF93F7F50F938C810598
:1081500091EB130AC03333044503338A8C00230E9A
:108160000A2021BD9307C033B307F50293F9F50F39
:10817000014B814A8144930BF00F130CF00F114D0A
:10818000954DE697984F03C52722584302972A8AB0
:10819000094783470A0095CF83471A006386A707DC
:1081A0006387B707639FE700834B5A00639B79019E
:1081B000834A3A0083472A00014BA20AB3EAFA0035
:1081C000854483470A003E9B3E9AE3645BFDE3825D
:1081D0000AFC638C04229307C033B307F402014600
:1081E0009D452285BE9C238E3C21A3800C22EFF06E
:1081F000FFB883A78C339D452285829723200900F1
:10820000268541016FB09FFF034C3A005DBFE39AA2
:1082100079FBE3180CFAD2852285EFF03FBDAA84E2
:10822000094745B7130AC03333074503138A81054D
:1082300003DB250083DB45003A9A83278A01034547
:108240002A22DC4382978347CA21E38E07C803C7EB
:108250001900994613F8FB0F6308D70863E8E60096
:10826000E31307C89C4023800700F9B9A9476300BE
:10827000F710AD47E319F7C603D72900B3070A0182
:1082800003452A222382E72683278A0103CB49005C
:1082900083CA2900DC43014A81498297AA84930D4D
:1082A000F00F930BF00F014D154C894C98201DC712
:1082B000983091476306F70C630E870D6319970199
:1082C00083C93400B820014AA209B3E9E900982023
:1082D0003A9ABA94E36C3AFDE38A09FC6A86A145AE
:1082E0002285EFF0BFA951B913578B0093071002F5
:1082F0006317F7049305F00F014781479148130373
:108300001002094E1DA010316304160363046602B7
:108310006317C6013C313821A207D98F0147369730
:1083200036956364F700E39007BC1421E9FE65BE4F
:108330002C21F5B7E315B8FE88C01C2199B393072B
:108340002002E312F7BA83474A270147E30DF7B843
:1083500083264A2281CA902E631606019C4A9CC03D
:10836000DC4A05B305071377F70F110AC5B7429A20
:10837000984083474A261CA323205901854449B5C8
:1083800083CD240083CB3400E313BBF5E3917AF56E
:10839000268D35BFE31DBBF363970A00AC20228511
:1083A000EFF04FD22DB7E3947AF3A6852285EFF054
:1083B000FFA331BF9307C0333307F50293878105CD
:1083C000BA9783C7C721E38007B283C71900CC21BE
:1083D0006387D70291CB0D47E397E7B083D7290096
:1083E0008DE7EFF06FCE51BE1306F100EFF0EFD442
:1083F00098879C40E30907E6054798A3B1B683D761
:10840000290081E7EFF00FD195BF23200900E1BCDF
:1084100093FA3A0085476399FA049307C033330708
:10842000F50293878105BA9703C647270147E30CF6
:10843000C7AA83A6472285C603A8060063010802CF
:108440008C2E83C64900639CD5002686CA86CE85BD
:10845000228502981345F5FF9354F50155B305079E
:108460001377F70F9107E1B78947E39EFAA69307C1
:10847000C0333307F50293878105BA9703C64727B0
:108480000147E302C7A683A6472289C603A8460080
:10849000E31D08FA05071377F70F9107DDB71307F8
:1084A000C0333307E50293878105938B8105BA9723
:1084B000984F5C4B9DCF9031D423631CD604DA21B6
:1084C0009146630BD7009546E31FD7A0BA21DC473E
:1084D0000A07BA97984311A098471C331423A207A0
:1084E000B6973423C206B6973433E206B69798C0DF
:1084F00049BE1C4F99CF9031F423631CD600D6217E
:108500001D47E392E69EDA239C439CC02320E900AA
:10851000B5B5504F35CA03C719001C22014A63166E
:10852000F70603D749008947E31FF79A78225C32A0
:10853000342222075D8F7C32A206C2075D8F1C2683
:10854000E207D98F1832D98E38324207D98E582295
:108550006207558F69BFB3074B01938787088A0766
:10856000DE97DC4389EB050A137AFA0F83C74A27A3
:10857000E363FAFE8DBA9C47FDD7CA862686CE8570
:10858000228582976DF1DDBB014A930AC033B30A9D
:108590005403130BF00CDE9A330B6403C1BF2DC6DA
:1085A000EFB21FC59307C033B307F50213878105E8
:1085B00032882A84B305F7009045D4454296B386A5
:1085C000064190C5D4C58DEE9386C701BA9694C571
:1085D00093860701A107BA963306F700EFF0FF8CE8
:1085E00001E9930500082285EFF00FAE6FB09FC23E
:1085F00081460146930500082285EFF04FB4FDB790
:108600008145EFF04FC1DDB78280EFB27FBE4111EF
:108610008145AA841304C033EFF00F9EB387840210
:10862000138481052C002685230701003E94B7079B
:108630008000938777503EC4231E042093070004D4
:10864000230104227C86EFF0EF9C2C002685230575
:108650000100EFF02F9C014626858545EFF00FF2D3
:108660008327843385452685829741016FB09FBA61
:10867000EFB21FB81309C0333309250313878105EF
:108680004111AA842146138481054A973A85EF2037
:1086900090657621930700202A8763FED700830721
:1086A000050063CA0700930500082685EFF0CFA1F7
:1086B00041016FB03FB69307C033B387F40213068E
:1086C000C901229632C6A29790C7D4C794CB238AF9
:1086D000070091CA8387070063C707008145268585
:1086E000EFF06FB3F1B793060901A2967000BA8557
:1086F0002685EFF08FFB45D99307C033B387F4028B
:10870000A297984BF6236373D700BA869307C033BA
:10871000B387F40213070020A297D4C7E365D7F804
:108720008847B2476318F5029307C033B387F40252
:108730009305000826853E9454441044EFF02FA082
:108740001C487A20E3F6E7F693F7F703B5F385477D
:108750005CA8B9BF3346F5000D8A41C2F1D613F7C4
:108760003700631D07103E862A87B388D7003D482F
:10877000B385C840636CB81013D646009315460005
:10878000AE973307B500C1553306B6023E850D4896
:10879000B296B388D7003A86B385A8406366B81608
:1087A00013D62600F155131526003306B602B296ED
:1087B0000146E38BC6F6B305C5003388B70003084E
:1087C0000800BA95050623800501E5B785070387EC
:1087D000F7FF0505FD16A30FE5FE137735003DCF26
:1087E000F5F699B7032806004106C10523A805FF41
:1087F000032846FF23AA05FF032886FF23AC05FFB5
:108800000328C6FF23AE05FF3388C840E36C07FD8D
:1088100013D64600C155131746003306B602BA9761
:108820008D452A97B29601463385C64063EEA50270
:1088300013D62600F155131526003306B602B2965C
:108840000146E383C6EEB305A6003388B7000308EC
:108850000800BA95050623800501E5B73E86AA857E
:10886000B388D7003D474DB73385C70003280500BF
:108870003305C7001106232005017DB7850703874F
:10888000F7FF0505FD16A30FE5FEC9BD0C42410625
:10889000410713D385002308B7FEA30867FE13D34F
:1088A0000501E181230967FEA309B7FE832546FF81
:1088B00013D38500230AB7FEA30A67FE13D305016D
:1088C000E181230B67FEA30BB7FE832586FF13D33D
:1088D0008500230CB7FEA30C67FE13D30501E181CD
:1088E000230D67FEA30DB7FE8325C6FF13D38500B6
:1088F000230EB7FEA30E67FE13D30501E181230FFC
:1089000067FEA30FB7FEADB511058325C5FF1106A0
:1089100013D38500230EB6FEA30E66FE13D3050106
:10892000E181230F66FEA30FB6FEBDB5314793F775
:10893000F507B387E7021307C0333307E5023E9715
:1089400093878105BA9783A7072891C7EFB25F8AFB
:1089500082976FB03F8C8280314793F7F507B387DA
:10896000E7021307C0333307E5023E97938781057B
:10897000BA9783A7072E91C7EFB29F8782976FB0F0
:108980007F898280EFB2DF869307C0333305F5021B
:10899000938781052E841306C0338145AA973E85AF
:1089A000EFB01F88130700F8230CE5263787000077
:1089B000130787E52320E528378700001307E759C9
:1089C00000CD230A0526230C052C2320E52E6FB0AD
:1089D0007F849307C033B307F5021306F00C1387A7
:1089E00081053305C502BA9783C6472794AD3695EE
:1089F000130585080A053A9585064CC1238AD726B2
:108A000082809821D04193168701E1869387810562
:108A100063D20602B1459376F707B386B602930593
:108A2000C0333305B5023695AA97238CE72623A0D9
:108A3000C7288280B1469305C033B306D7023305F9
:108A4000B5023695AA97238CE72C23A0C72E8280E7
:108A5000139785016187938781056350070231472A
:108A600093F5F507B385E5021307C0333305E50237
:108A7000AA95BE9503D5A52782803147B385E50227
:108A80001307C0333305E502AA95BE9503D5A52D7E
:108A900082809307C0333305F50293878105AA9737
:108AA00003C5C7213335A000828011C101A0EFB2F8
:108AB0002FF4B75700201384810523A0B720232C5F
:108AC000C432EFE03FCEAA840146AD450145EFF048
:108AD000EFAA83278433AD450145829726856FB081
:108AE0006FF385476386F5009D476386F5048280B2
:108AF0003777002013074791414630B370B72324DE
:108B00000700232A07003757002093874139B756BB
:108B10000020231A0720370702009386C621938579
:108B20004700375600200907938787208CC2232CE3
:108B3000E620DCC28280EFB2AFEBB754002037747E
:108B400000201304C4939384C42190400C20930606
:108B500000202A89EFE03FECD0400C24930600204F
:108B60004A85EFE05FEB6FB0EFEAEFB2CFE6AE8998
:108B7000854563E3C512375A0020AA8A130A8A2062
:108B800089E783250A0063890510B1442320FA0090
:108B9000B3079602B774002093844491931516008E
:108BA000894813132600375500201305C5201A9550
:108BB00013143600BE94B70700109CC0996789074C
:108BC000DEA0B757002093874721B2972380070084
:108BD000B757002093878721AE9793054020B305B0
:108BE000B60223901701B75700209387C7219A97A1
:108BF00023A40400377900201309C993229913880C
:108C0000450093854139C2958CC3B7370020931531
:108C1000C6009387471CAE971CC11305000623802E
:108C2000170188B3B71700209387471CAE9723809E
:108C3000170188B3B7970000938727FC23A4F90096
:108C4000B7970000938727AEB775002023A6F900D9
:108C50009385C592B797000023A0090023A20900BD
:108C6000A295938787F1DCC1B79700009387C75B14
:108C700094A12322F9002300E9005685EFF07FD864
:108C8000CA855685EFF0FFD783270A009223335613
:108C900086400D86058AB0A04E856FB00FD7EFB223
:108CA000AFD237570020930647229C4237740020EA
:108CB000375900208507B7590020375A0020B77A66
:108CC0000020AA8B9CC2130444918144130B4722B9
:108CD0001309492193898921130ACA20938ACA92C8
:108CE00083270B0014441387F70F6375D7003830C0
:108CF0003E9718C4184463E7E702B3079900982326
:108D000015E3054798A393961400139724009397AF
:108D10003400CE965297D697962210438C235E85C8
:108D2000EFE0FFC1310499C06FB08FCD85444DBFD6
:108D3000EFB20FC9375A002093078A21139C150000
:108D4000E29741112A8B2E89B6848223130A8A2145
:108D500091E679E3268541016FB04FCAB7570020ED
:108D6000939A2500856C9387C720B28B0143138D9E
:108D7000ECFFBE9A0948854D930800069377F41FCF
:108D800099EB636A8D0083A70A00A2970504420449
:108D90002380070141809377F41F639CB701636AC6
:108DA0008D0083A70A00A2970504420423801701BF
:108DB0004180B307940063C697018564818CC20427
:108DC000C1809377F41F93060020B387F640C20753
:108DD000C183A68963F39700BE8903A50A00C2096F
:108DE00093D90901DE8522954E8646C642C43AC211
:108DF0001AC0EF20406F0243B38734414E94C2073C
:108E0000B38469004204C204C183CE9B4180C18007
:108E100012472248B248ADEB629A23108A001DDB4C
:108E2000B757002093874721CA97982305F71DD08D
:108E30000547B759002098A39389C92093172900A3
:108E4000BE99B7770020131739009387C792BA9756
:108E50008C2303A60900A2865A85EFE05FAE8947FE
:108E60002310FA0003A70900B737002032099387BF
:108E7000471CCA97631DF700B71700209387471C4C
:108E80003E9923A02901F9B52683BE84C5BD23A040
:108E9000F900C9B5EFB2CFB5B75700201397250039
:108EA0009387C721BA9713973500B775002093852C
:108EB000C593BA9590438C2193060020EFE0BFB58F
:108EC0006FB04FB593978501E18763CA0700B75725
:108ED000002083A787208605BE958A218280416570
:108EE0007D158280828093978501E18763C40702A4
:108EF000B757002083A7872013971500BA9792A32E
:108F00009307F0076398F500EFB28FAEEFD0AFF69E
:108F10006FB04FB082808280EFB2EFABB7770020A6
:108F20009387C7929823630FB7069C27639AB70667
:108F30000544B757002013191400938787213E99E1
:108F400083560900894963F3D906B75700209387F0
:108F5000C72093142400BE949040EFE05F9EB73783
:108F6000002094401317C4009387471C2310390135
:108F7000BA97639BF602B71700209387471C3E976A
:108F800098C0B1473304F402B77700209387479124
:108F900037570020032747223E943C30BA971CC421
:108FA0006FB0AFA6014471B79CC0E1BFB7570020B6
:108FB00093874721A297A28523800700EFF0BFF592
:108FC000C9B7EFB2EFA20111A30B010003C3550013
:108FD000DC212E8822033363F3009375F30F23A063
:108FE0000600814789C59387F5FF93F7F70F8348FC
:108FF00018001D47636717059945014763F7B800D7
:10900000094E63681E016388080A3A8505616FB0DE
:109010006FA011476381E81A637B1711B145B385CF
:10902000B702B7770020938747913757002013077F
:109030004720AE97DE231EA318C223A0C601014716
:10904000E9B731476386E806636C1701A945638376
:10905000B80463E0151BA5466382D8187D5775B721
:10906000930710096389F81A93072009638EF81A89
:1090700093070009E394F8FE36C632C4EFF09FE48C
:10908000B75700202246938747208AA31CC2B246C6
:10909000894729A8FD17B387E70213873700B777F9
:1090A000002093874791BA971CC285479CC241BF55
:1090B00093077101D5BF8346380003472800A206F5
:1090C000D98EA9E2B145B385B702375700201307FF
:1090D00047213E979396170023000700B77700209B
:1090E0003757002013078721938747913697AE970C
:1090F000B75600202310C70183A64622B8333697FF
:1091000098C735BF05460147E391C6F037570020A1
:10911000130747213E9793951700B7570020938771
:109120008721AE97230007002390C70109BF03469C
:109130003800834628002206558E9356630013F7A5
:1091400006049356E60093152601D98EC98101467F
:1091500099CA054713F6F60F6388E6026305C60150
:10916000751613361600137303206311030237C7F5
:109170002D001307076C85E13ACC230F010030085E
:10918000BE85EFD04F8765BD1146F1BF3727B700C9
:10919000130707B0CDB785466397D5008D46335783
:1091A000D7020607D1BF8E05B295C2050E07C18151
:1091B0003357B702D1B7034738008346280002CCA3
:1091C0002207558F93568700230FE1002D839D8A38
:1091D0000D8BA30ED100230EE10055B7B387E70234
:1091E0003777002013074791BA9703472800B8B391
:1091F000B9B5B387E7028346380003462800B77540
:109200000020A206D18E9385459113D78600AE9794
:1092100098A394B32DB58347380003462800A207CE
:109220005D8EEFF05FCC21BDEFF0DFCB09BD0145D6
:109230008280EFA25FFAB147130A4020B387F5029C
:10924000B77400209384449141112A892E84328B73
:109250008149938A4139338A4503BE9463906905F5
:10926000A2850547814601464A85EFF07FAC375716
:109270000020931724001307C7213E97B7770020DB
:109280009387C7930E043E9410430C20930600204E
:109290004A85EFE04FF841016FA03FF7B3874901DE
:1092A000D697982394309020A2854A85EFF03FF816
:1092B000C887014785461306F100A2854A85EFF06D
:1092C0003FA7850961BFEFA2BFEF13094020338993
:1092D0002503375E00209307CE22AE97130101BE0F
:1092E0009023138C460023800700938741393EC2A8
:1092F000338A270193170C01C18311443ECAFD171D
:10930000AA892E8D118C814C814D02C0930BCE22E7
:109310003ECC63678407338EAB0103470E0011CF49
:10932000B307E94013894139131607013E99418279
:10933000814763EAC72685473EC0024793960D01E1
:109340001010EA85C1824E85EFF09F9E37570020AE
:1093500093172D001307C7213E97B77700209387F7
:10936000C79313133D003E931043834503009306B8
:1093700000204E85EFE02FEA130101426FA01FE8A5
:10938000B3078A00902393178601E18763D9070EFC
:109390009347060875476362F70E3D678A07130710
:1093A0000722BA979C43828793043400636B9C0422
:1093B000924733068900EA853E964E85EFC0FFF955
:1093C000268481BFEA854E85EFD00F819307014245
:1093D000EE972380A7C0850D93041400D5B793049E
:1093E000240063609C0293070142EE97238007C02C
:1093F000850DF9B793043400EDB793044400E3718D
:109400009CFCB387AB0133078C4098A3A28CE28409
:1094100045BF8547930414003EC05DB7B7879303EB
:1094200037570020938707702324F72275B7B72793
:10943000B70037570020938707B0FDB79304240087
:109440007DBF9304340065BF9304340063799C00AE
:10945000B387AB0133078C4098A3A28CE2849307B7
:109460000142EE9769572380E7C033079A0018231B
:10947000890DA380E7C08504A1B7A284CDB79377F7
:109480000607930414008DDF13772602930620024B
:1094900089476303D7008D47A2976360FC0A930452
:1094A0001400B3069A009377260083C2060085C78E
:1094B0008502854A93572640858B3EC493770605DF
:1094C000135B36403EC693770602137B1B003EC8F3
:1094D000137406015DA893042400B3059A0083CF9A
:1094E000050093770605A20F850FB3EF5F00939AEF
:1094F0000F0193DA0A01A142D5DFB3879A00E3EBAB
:1095000087FBB387AB010D4798A3D247139704019C
:109510004183B307F740B38FFA0093970F01C183DC
:1095200013D5870088A19CA2E247A28CB38FE740A5
:10953000939A0F0193DA0A01B5BFB387AB013307E2
:109540008C4098A3A28CE2843DB7B2471306F00F7B
:1095500089C78504B3079A009023C24795CBA246DA
:1095600013F7F20F5A86EA854E8516CEEFC0FFFC40
:1095700093070142EE972380A7C0850DF242938F97
:10958000FAFF939A0F0193DA0A01E3900AFCE5B51A
:109590007DD493F7F20F0147DA86EA854E8516CE21
:1095A000EFC09FE6E1BFB306E900E6969422850787
:1095B000C2072302D900C1830509A5BB3777002064
:1095C0001307C7931423AE876387B6001827854512
:1095D0006304F70082808145EFA29FC1B2863E8678
:1095E000B1473387F502B777002093874791BA9741
:1095F0009C232147638EE702636FF7000947638965
:10960000E70211476385E70005476396E702368660
:10961000EFF03FC221A8130700026389E700130798
:1096200000046385E70041476397E7006FA09FBE92
:10963000EFF07FC9E5BFB757002013972500938748
:10964000C721BA979043EFD0CF83CDB7B79700002B
:109650009387E7689CC123A2050023A4050023A6E5
:1096600005002E8582808280930700F81CA2930754
:1096700040F81CB2F9473CA2A147A30106007CA216
:10968000A302060023020600828082808280EFA26D
:109690003FB69C311307100201113284C421638943
:1096A000E7062A89636AF700130700026382E7026C
:1096B0007D5505616FA01FB6130720026389E7027D
:1096C00013073002E396E7FEA685EFF03FFC31A8D2
:1096D000FC31F0210C40A2075D8E2808EF10B0602D
:1096E0003008A6854A85EFF01FF80145D9B7A031AB
:1096F000B021A6852204518C13761400EFD00FC23E
:1097000013561400058AA6854A85EFF01FF8F1BFAD
:109710003008A68536C6EFF03FF508401D462C08F8
:10972000EF10705CB2469D479CC2C1B7370810006D
:1097300001117D183377B80026CA3378D80093D446
:10974000450113D34601131E37004EC61357D501EA
:109750000E089357D60193F4F47F1373F37F06CE6C
:1097600022CC4AC893D9F50193DEF6013367C701CD
:10977000131F350033E80701931F3600338E644012
:109780006380D9196356C0136304031CB7068000B5
:109790009307F07F3368D800638FF4369307800314
:1097A00063C0C735FD4763CDC747130500023305C6
:1097B000C541B3D7CF01B316A8003399AF00DD8EF2
:1097C00033392001B357C80133E926011D8F33090E
:1097D0002F41B3372F013306F7409317860063D428
:1097E0000724370780007D173374E600630C042CD0
:1097F0002285EF10303B130785FF93070002998FF6
:10980000B357F9003316E400D18F3319E9006341EF
:10981000972A33059740130615007D47634DC738D7
:1098200013070002118FB356C9003319E9003397AB
:10983000E700558F333920013369270133D6C7003C
:1098400081449377790081CF1377F90091476308BA
:10985000F70013074900333927014A963A899317CD
:10986000860063D6071C138514009307F07FCE850E
:109870006304F520B70780FFFD17F18F9398D70198
:1098800013593900A607B3E82801B1831375F57F92
:109890009396C7005205F2406244B182FE05C98E1C
:1098A000CD8ED2444249B2494685B6850561828053
:1098B000631E0E0A138314001373E37F63170322DE
:1098C000B367E701B368F801639D041A6387074033
:1098D000638608443309FF41B307074133362F013C
:1098E0003386C7409317860063D6074C3389EF4110
:1098F000B307E84033B62F013386C740F68991B7E6
:109900006350C00F6300030CB70680009307F07F1D
:109910003368D800638AF43A9307800363CBC71394
:10992000FD4763DFC73513090EFE93070002B356E8
:109930002801630AFE00130900043309C9413319E1
:109940002801B3EF2F013339F0013369D90031A277
:10995000B367F801638A071C9307FEFF638C07381F
:109960009306F07F6309DE1A3E8E0DBDB30593406A
:1099700063910422B367E701638707329387F5FF9A
:10998000638107449306F07F638CD520BE859307DF
:10999000800363CCB72AFD4763CFB73C930700022F
:1099A0008D8F3319F700B356BF00B317FF0033692B
:1099B000D900B337F0003357B7003369F9003308E3
:1099C000E84041ACB367F801638007349307FEFFBA
:1099D000638A07209306F07F6308DE2E3E8E2DBF3C
:1099E000631E0E149386140093F7E67F6391073489
:1099F000B367E7016395042C6380073EB367F80102
:109A0000638E07303309FF01B3070701333FE901D4
:109A10003386E7019317860063D70700B70780FFF7
:109A2000FD177D8E854493777900E39F07E09317B8
:109A3000D60193583900B3E8F8009357360013075E
:109A4000F07F638DE404B207B18313F5F47FCE8514
:109A500081B53369F801333920017A99B337E901C7
:109A60003386E70093178600E3DF07FA8504930740
:109A7000F07F6396F418CE851305F07F8147814807
:109A800001BDC1EB6384083A931636009317D801E1
:109A90008D82B3E8D700F68993573800B3E7F80012
:109AA000F9DB81451305F07FB70708008148CDB386
:109AB000370680FF7D167D8E93777900998CE3952C
:109AC00007D8B5B74A85EF10F00D13078501FD479C
:109AD000E3D5E7D2130685FFB317C900014905BBDB
