:044000006F30D0014C
:1040040000400000000000006063000062630000E4
:10401400000000001A78000000000000000000000A
:104024001A7800001A780000000000000000000068
:104034001A780000000000001A7800000000000058
:104044001A7800001A7800001A7800001A78000024
:104054001A7800001A7800001A7800001A78000014
:104064001A7800001A7800001A7800001A78000004
:10407400467400006A740000507900001A78000049
:104084001A7800001A780000407E00001A780000B8
:104094001A7800001A7800001A7800001A780000D4
:1040A4001A7800001A7800001A7800001A780000C4
:1040B4001A8400001A7800001A7800001A780000A8
:1040C4001A7800001A7800001A7800001A780000A4
:1040D4001A7800001A7800001A780000FA730000B9
:1040E4001A7800001A7800001A7800001A78000084
:1040F4001A7800001A7800001A7800001A78000074
:10410400000000001A8A00001A7800001A780000E3
:104114001A7800001A780000647300001A7800000E
:104124001A7800001A7800001A7800001A78000043
:104134001A7800001A7800001A7800001A78000033
:104144001A7800001A7800001A7800001A78000023
:104154001A780000AC9800001A7800001A78000061
:104164001A7800001A7800001A7800001A78000003
:104174001A7800001A7800001A7800001A780000F3
:104184001A7800001A7800001A7800001A780000E3
:104194001A7800001A7800001A7800001A780000D3
:1041A400000000000000000000000000000000000B
:0C41B400000000000000000000000000FF
:1041C000397101436EC619A0397141536AC866CA74
:1041D00062CC5ECE19A0397101535AD056D252D456
:1041E0004ED64AD826DA22DC06DE330161408282CE
:1041F00041114AC026C222C406C68282B24D410184
:10420000024D924C224CB24B4101024B924A224A3F
:10421000B2494101024992442244B24041018280A4
:104220003D432A876373C3029377F700BDEFADE583
:10423000937606FF3D8ABA960CC34CC30CC74CC795
:104240004107E36BD7FE11E28280B306C3408A06C2
:104250009702000096966780A6002307B700A30682
:10426000B7002306B700A305B7002305B700A304D2
:10427000B7002304B700A303B7002303B700A302CA
:10428000B7002302B700A301B7002301B700A300C2
:10429000B7002300B700828093F5F50F9396850051
:1042A000D58D93960501D58D61B79396270097021A
:1042B000000096968682E78086FA9680C1171D8F49
:1042C0003E96E374C3F8A5B73367B500FD530D8B75
:1042D00079E7B7877F7F9387F7F710419441B372EF
:1042E000F6003363F600BE92B3E262006395720C8F
:1042F0006318D6065041D441B372F6003363F6001A
:10430000BE92B3E262006396720A631BD604104544
:104310009445B372F6003363F600BE92B3E26200D6
:10432000639F7208631ED6025045D445B372F600EF
:104330003363F600BE92B3E26200639872086311C1
:10434000D60210499449B372F6003363F600BE9268
:10435000B3E26200639172085105D105E30FD6F60E
:104360001317060193970601631CF7001357060104
:1043700093D706013305F7409375F50F91E98280D5
:104380004183C1833305F7409375F50F91E1828036
:104390001377F70F93F7F70F3305F740828010215B
:1043A0009421050585056313D60075FA3305D640BB
:1043B000828011059105E314D6FE01458280210516
:1043C000A105E31ED6FC014582803105B105E31845
:1043D000D6FC014582804105C105E312D6FC0145AA
:1043E00082806374D600B29588A182808280EFF2C9
:1043F000BFDD0111368A2A89AE89B28BC64AD646FC
:1044000011E3BD9A13F3064063040300014431C372
:1044100093F506021306100699C1130610040A85C7
:104420000144254F930566FF930E0002337E070378
:104430001376FE0F6364CF051306060362066186DA
:1044400010A10504335607036365070105056315CD
:10445000D40313FB260063150B0413F716006388BF
:104460000A0011C781E713F6C60011C2FD1A130630
:1044700000029305000309A832874DBF2E967DBF29
:10448000330581000CA1050463741401E31AC4FE12
:104490007D469305000309C763745401637F860258
:1044A00013F706013DCB6310030415CC6384880029
:1044B000631B54031307F4FF15C7414679146307C0
:1044C000C8023A8409476310E8047D47636287069F
:1044D000181022971306200625A0330581000CA191
:1044E000050455BF01444147E31EE8FC13F70602EB
:1044F0003DE37D47636E87021810229713068007FD
:104500002300C7FE05047D476364870218102297C5
:10451000130600032300C7FE05047D47636A870076
:10452000B9C31C10A2971307D0022380E7FE05042D
:104530008D8A5E86B5C6B304C40026853386844062
:104540003DE063080B00B384744133859B0063E551
:104550005407056175B17D47E36C87FC18102297FD
:104560001306800571BF93F7460091C71C10A297F0
:104570001307B0025DBF93F78600DDDB1C10A29726
:10458000130700025DB7D286CE8513050002130C17
:10459000160002996286B387C400E3E657FF61BF45
:1045A000B3047441CDBF7D14B307810003850700B8
:1045B000D286CE85029951B72A86D286CE8513053A
:1045C00000020299850451B7EFF29FBF01112E8AB4
:1045D000B289B684BA8B2A8989E537490000130964
:1045E000C93EC16A814DFD1A294B01AE93075002A5
:1045F00085046308F50013841D00CE866E86D2857F
:1046000005A181451307B00213060002130530020D
:1046100021A81304D002638F87021304000363915F
:10462000870293E51500B6848387040093861400FF
:104630006385E702E34FF7FC6384C7026385A70243
:10464000138707FD1377F70F25466368E606014CCD
:10465000A54625A093E52500F9B793E54500E1B708
:1046600093E58500C9B793E5050175BF33036C0376
:10467000B284130303FD330C670003870400138621
:104680001400930707FD93F7F70FE3F1F6FE038796
:1046900004009307E002631DF71483861400254687
:1046A00093871400138706FD1377F70F93E50540F2
:1046B0006360E612814825460DA81307A002014C4D
:1046C000E397E7FC03AC0B0093874B0063560C00A9
:1046D00093E52500330C8041BE8BB6844DBFB38873
:1046E0006803AA87938808FDB69883860700138518
:1046F0001700138706FD1377F70FE372E6FE0387B3
:1047000007009306A006938417006304D71263C4BE
:10471000E60E930680066304D710BE84038504006A
:104720009307900685046302F50263CEA7109307F2
:104730002006630CF50063C1A71093075002630ABB
:10474000F52C93078005E318F5EA93078007630EBD
:10475000F52C930780056308F52C9307F006630892
:10476000F52C930720066306F52C93079006BD9958
:1047700029486307F500930740066303F500CD99C8
:1047800093F7054091C3F9991307900693F7052015
:104790006306E500130740066315E510639F0714E1
:1047A00093F7051013844B00F9CF83A70B0013D7A1
:1047B000F741B346F7002EC262C0FD833387E6405F
:1047C0006E86CE86D2854A851D31AA8DA28B35A2F2
:1047D0001307A0028148E394E6F283A80B00138735
:1047E0004B0063D30800814893872400BA8B01BF34
:1047F000A687814829B79306C0066309D7009306A8
:10480000A007E31CD7F093E5051009BF83861700C6
:10481000E39BE6FE93E505309384270001B783868A
:1048200017006385E60093E50508CDBD93E5050C0B
:10483000E5B793E50520DDB593073006630DF50870
:104840009307400609B7930730076302F51063C565
:10485000A7029307F006E30AF5EE93070007E31CAF
:10486000F5D893E51502A14703A70B0013844B006D
:104870002EC23EC0414881A093075007E307F5ECE4
:1048800093078007C9B513F7050483A70B0001C779
:10489000E207E18729BF13F7050811DBC207C187CB
:1048A00039B7A1EF93F7051013844B0099C703A7FD
:1048B0000B002EC262C0814721B793F7050403A7FE
:1048C0000B0081C71377F70FEDB793F70508F5D302
:1048D00033775701F9BF13F4250029CC6E86854C38
:1048E00003850B00CE86D285138D4B00930D1600E9
:1048F000029919C063E28C05EA8B03850400E31773
:1049000005CE6E8663E43D011386F9FFCE86D2851F
:10491000014502996E850561D5B0CE86D285130515
:10492000000202993306BD01930C2D00050DE366CC
:104930008DFF7DB7014DFDB76E8613841D00CE86B9
:10494000D285130500020299850CA28D65B7938765
:104950004B003ECA03AD0B00C68763930800FD57AA
:104960003307FD00EA878386070099C26312F702C6
:1049700093FB0540B387A74163850B0063F3F80001
:10498000C68713F42500BE8C1DE4338EFD4031A88C
:104990008507D1BF72CE46CCCE866E86D2851305F2
:1049A00000020299E248724EE687B30DFE00938C36
:1049B0001700E3E187FF6E8621A8BE8893071600E3
:1049C00046CE3ECCCE86D2850299E247F2483E865C
:1049D000B307B641EA970385070019C5E3800BFECC
:1049E0009387F8FFE39B08FCB28D0DE0D24B31B703
:1049F0006E86938B1D00CE86D28513050002029928
:104A0000DE8DB307B401E3E587FFCDB73384CC4037
:104A1000CDBF13841D00CE866E86D285130550024D
:104A20000299A28DD9BD93E50502414889BB214871
:104A300099B3094889B3EFF2AFFB3687B2862E8669
:104A4000AA85374500001305253EBD3E6FF08FFC5B
:104A5000AA87014585C399CD11CE23A80700D0C3ED
:104A60008CC31387C7002F200708A1072FA00708B2
:104A7000054582808280814705C11841814709CF61
:104A8000544199CA58450845B307E5406365A700F6
:104A9000B307D500998FFD173E85828011E501454A
:104AA000828001456FF06FF6EFF2EFF21C41AA84AD
:104AB000EDDB5C41FDD7F5D56DD63A89B68A3284F7
:104AC0002E8A553F79DD6376850013791900E31A44
:104AD00009FC637385002A8403ABC4000F00F00F48
:104AE00003A9440033096941637324012289884082
:104AF0004A86D2855A95B3092441EF802072639A81
:104B00000902B3092B01DC4063E3F9008149938773
:104B1000C4000F00500F2FA037099C4889C7228678
:104B20008545268582970545E38E0AF623A08A00EF
:104B300095BF88404E86B3052A01EF80206EE1B70D
:104B4000EFF20FEB41110147740002C6813F09C526
:104B5000324541016FF00FEC0145E5BF814701CDC2
:104B60001841814709CB544199C658451C45636695
:104B7000F700B307F7403E8582803697DDBF11E529
:104B80000145828001456FF04FE8EFF2CFE41C4110
:104B9000AA84EDDB5C41FDD7F5D56DD63A89B68A9E
:104BA00032842E8A653F79DD63768500137919009A
:104BB000E31A09FC637385002A8403AB84000F00A9
:104BC000F00F03A94400330969416373240122896A
:104BD0008C404A865285DA95B3092441EF800064FF
:104BE000639A0902B3092B01DC4063E3F9008149B0
:104BF000938784000F00500F2FA037099C4889C766
:104C000022868145268582970545E38E0AF623A0F4
:104C10008A0095BF8C404E8633052A01EF800060E4
:104C2000E1B7EFF2EFDC41110147740002C6813FAA
:104C300009C5324541016FF0EFDD0145E5BF814710
:104C40003387F500830607003307F50089E6230064
:104C500007003E8582808507C20714A3C183CDB7B4
:104C6000EFF20FD94111AA87CC871305F1008545D2
:104C7000829741016FF00FDAB73700209387072B37
:104C800093864701884309C503470506098B09E751
:104C90009107E399D7FE01458280385505C7EFF2A9
:104CA0002FD581479396070185073386F5000306C4
:104CB000F6FFC18265FA2E85B685029742054181CD
:104CC0006FF04FD501458280EFF28FD28347050602
:104CD000858BA9C3B7050100938545622A84753F7A
:104CE0001C402285CC43553FB71501009385C5AACA
:104CF000228565370C4489E5B705010093850522B7
:104D00002285613FB70501009385452222857137D1
:104D10006FF04FD0B705010093858522CDBF982154
:104D200005C39C418566938606F0F58F93870780BF
:104D300081CB1441FD578DC29C227D8FFD5709CF39
:104D4000034705068147058B01EB9C41B18393C75F
:104D50001700858BB307F0403E85828023840500D1
:104D6000A147254811E521451D8D62056185828099
:104D70001376F5001377F60F930607036357C80001
:104D80001307770593168701E186FD1793F7F70F51
:104D90003387F50014A31181F1B7EFF26FC5B73572
:104DA000002081471384452A130600032547B306D4
:104DB000F40090A28507E39CE7FE1C4105474841AB
:104DC000A183BD8B637CF7001D476379F700214702
:104DD0006386E7009385452A513722856FF08FC39C
:104DE0009357F54133C7A7001D8FA3850500AD4735
:104DF000294619EF635C0502FD1793F7F70FBE957F
:104E00001307D00298A12D451D8D62056185828012
:104E1000B366C702FD1793F7F70F3388F500938643
:104E200006032300D8003347C702E1B769FDFD1729
:104E300093F7F70FBE9513070003E9B7EFF24FBBE7
:104E4000411140002E89B70501003146AA8493859F
:104E500045252285EF80803CB70501009385052418
:104E60002685253DA2854A85A53FB305A440AD050D
:104E700026852535B70501009385C5242685313D56
:104E80008147130600032D47B306F40090A285075F
:104E9000E39CE7FEA2854A85D135A2852685F53BB0
:104EA000B7050100938545622685C53B41016FF03A
:104EB0006FB6EFF24FB22A842E852E89F93DAA856E
:104EC0002285E13BD944898CC204C18463439000AC
:104ED0009144285493050002FD145933139504019D
:104EE000418193140501C1846DF5832709000547AD
:104EF000A183BD8B636FF708B70501009385050893
:104F00002285613BB70401009385840A22857133B1
:104F10009D497D5A8347090093058007B3D73741E0
:104F2000858B99E39305D0022854FD19153BE39333
:104F300049FF9385840A22858D3334540325C900A3
:104F4000A9C2096681473548130616403307F500A4
:104F5000182393950701C1818507E369E8FE33575C
:104F6000E600058B65D79307400263F1B70693050A
:104F7000400282963C54370501008D451305C50A51
:104F80008297B705010093854562228539336FF01A
:104F9000CFA71D476367F700B70501009385850814
:104FA00085B721476397E700B70501009385050999
:104FB00081BF25476397E700B70501009385850901
:104FC00081B7B70501009385050A1DBF829655BFBD
:104FD000EFF26FA0B70501009385C5062A898329E2
:104FE000850501445D39054A8357C9056344F400CA
:104FF0006FF0AFA193144400CE949C40A183BD8B6D
:105000006369FA00A6854A85193B01E5A6854A85AC
:105010004D35050442044184C1BFEFF2CF9B2A897C
:105020002E849304F00FB70901007D141374F40F5C
:10503000631494006FF06F9D938509004A85B13920
:10504000EDB7EFF2EF9A42257E25AA841D8C42042B
:10505000418463478000CC242685C1376FF08F9B45
:10506000A854930500027D14E53ED5B7EFF24F98A2
:105070005A395E252A847D1763CEE700B705010003
:10508000938585041939228581310C482285313177
:105090006FF04F987A256399E702184993861700B5
:1050A00056A5BA978CA35A251C49BA9723800700A6
:1050B0007E2585077EA583470506858B99E39305A5
:1050C000A0022854713EE9B7E374F7FC998FC20738
:1050D000C1873E86184876246344F00493871600FF
:1050E0007EA436970CA35E2418488507C207C183A7
:1050F0005EA4BA97238007000359E4007D19462473
:10510000420913590941634799027E249D8CC204C8
:10511000C184E35F90F62854A145FD149136C5BFC4
:10512000B29636978306F7FFFD17C20714A3C1870F
:105130007D164DB7834704069305A002858B89C76A
:105140001C48CA978385070028540509113E45BFAE
:105150007A259387150093B7170001E78546638981
:10516000D50AEFF2EF8856252A84631DD702FD5633
:105170006380D50285466397D5027D171C497AA5C1
:10518000420741835AA53E972300070085457135A4
:105190006FF04F8814483E978507369783060700BF
:1051A000A30FD7FE56247A24C207C1873386E64070
:1051B000E3C2C7FEFD1656A4FD576387F5002854C9
:1051C0007D177AA4A145693C5A241C48BA972380CC
:1051D00007008314E4005E24285463C2F40293059C
:1051E0000002BD3C46247E2485049D8CC204C184FB
:1051F000E35090FA2854A145FD149D34C5BF1C48C6
:10520000A697838507008504C204993CC184E1B751
:105210008280EFE2FFFD41112A8F02C002C202C468
:1052200002C681471395070141856344E502B70E25
:1052300000200144014581470548938E8E27930F36
:10524000C005854293030002636CB40041016FE026
:105250007FFC139827003298232008008507D9B7D0
:10526000B3088F0003830800A1EF638C6602631705
:1052700058086359E50013182500329823201801B7
:105280000505014803CE0E0003830800631AC30519
:105290000408138E1700A697238867FE9377FE00F5
:1052A00081A0E31108FE038818002380080001187C
:1052B000333800019308140013940801418069B742
:1052C00003CE1E00E310C3FD130301013E93034E02
:1052D000F3FE03C30E00E3176EFAFD1793F7F70F03
:1052E00003830800E318F3FD03831800E30403FCC1
:1052F000930814001394080141806DBFE30573FA0D
:1053000051B7EFE27FEC3C4D8354C5050569B30707
:10531000F64091839D8CC204130C09F0AA892E8A51
:10532000B28A368BC180814B1309099093970B0188
:10533000C18363E49700014405A813944B0056947D
:105340001C40B3F7870163942701850BC5B7A2857D
:105350004E85F1327DF922858934AA8563190B00C7
:105360005285EFE07FF675F122856FE07FE95A867E
:105370005285EF70507EC5BF9C4115470145A18302
:10538000B907BD8B636DF7024167130787FE8A0774
:10539000BA9798439C45028788438280039507000B
:1053A00082800385070082803E858280D843014544
:1053B00019C7EFE2FFE3884302976FE0BFE5828001
:1053C000EFE27FE14111AE894400B70501002A8474
:1053D0003146938545252685EF705064CE8522851C
:1053E000613F83A549002A892285EFF01F8BB7050D
:1053F0000100938585212285EFF03F8A83A709006C
:105400001547A183BD8B639DE702B7040100938517
:10541000C4212285EFF07F88CA852285EFF0FF87BF
:105420009385C4212285EFF05F87B705010093853E
:1054300045622285EFF07F864A8541016FE0FFDCFF
:10544000A6854A85EFF0DF99B385A440AD05228596
:10545000EFF0BF84B70501009385C5242285EFF0E6
:10546000DF838147130600032D47B386F40090A223
:105470008507E39CE7FEA6854A85EFF03F8EA6856B
:1054800055B7EFE2FFD62A840CC18845054711CDF8
:105490008307050099CB76388547014763F7D70026
:1054A0000C4CEFE07FE21337150083470406B70585
:1054B00001009385050BF99BD98F2300F406228503
:1054C000EFF0AFFD83470406858B81CBB705010064
:1054D0009385C50B2285EFF04FFC6FE0BFD3EFE261
:1054E0003FD1834705060CC92A8493E717002300A0
:1054F000F50699473356F6022326050023200500BA
:1055000023280504231A05049307C503130705057B
:1055100052B9B2958CC39107B295E39DE7FE4166FF
:10552000930706263CCC83D70184373700209306A7
:10553000072B231EF4041307072B81479545884248
:105540000DE58A07BA9780C3B705010081461306A7
:1055500006269385050422856D33AA852285153795
:105560002285EFF06FF66FE0FFCA85079106E3989A
:10557000B7FCD9BFEFE23FC68347050698412A84AE
:1055800093E727002300F5068567938707F0F98FD7
:10559000AE89C9E3416A8144930A20027D1A81A041
:1055A00093972400A297D84B830607006397560170
:1055B00023000700D84B0507D8CB03A947014A852C
:1055C000EF705058337545017D152A9983070900FE
:1055D00063945701230009008504C204C1806A381E
:1055E000E3E0A4FC83A7890093054401829783A785
:1055F0000900AA841397270163460700AA8522851C
:10560000EFF0DF83834704062685F59B2300F4062D
:105610006FE0BFBF930600106398D70072399306FE
:105620004501EF00A07DE1B7218339073D8B954609
:1056300063E5E60071338144F1B7938707808144C5
:10564000F1F38135C1B7EFE2BFBA83470506ED9BA1
:105650002300F506EFF09FA16FE0DFBB5A2563053D
:105660000710EFE2FFB81C492A84BA97238007008D
:10567000834405060329050193F71400CDCF835712
:105680000505231A05048354250589CF914799C040
:105690009387F4FFB1078A07A297C847CA85EFE04E
:1056A000BFC21DCDB1048A04A294C844CA85EFF0DC
:1056B0000FD911C58357240585072319F40483578F
:1056C000040515478507C207C183636BF7042318D8
:1056D000F40403572405914763F4E70023190404F5
:1056E0004E2408482147930600021306440115364C
:1056F000420541816AB8232604000DC1B7050100A7
:10570000938545622285EFF04FD94C48304C814655
:105710002285C53EAA8501C92285A93D6FE09FAFBC
:105720002318E4047DB7B705010093854500228561
:10573000EFF0AFD6E5B71C414A858C47EFE0DFB804
:1057400019ED93E41400B705010023009406938536
:10575000C50B2285EFF06FD423260400C1B7B7052F
:10576000010093858501F5B78280EFE27FA883165B
:105770004505035705052A849387F6FF231AF50488
:105780008357250563F3E700BA8713970701418321
:105790003307E0406346D700B307F040231AF40410
:1057A0002285EFF01F8A0317440509E7232604002A
:1057B0006FE05FA68357240508489507BA971547F9
:1057C000B3E7E702B1078A07A297CC47EFF02FC7EC
:1057D0004AA479DD0C486AA42285EFF00FCCC9BF3A
:1057E000EFE21FA1835745052A848507C207C187B9
:1057F000231AF5046356F000231A05046FE09FA1F5
:10580000EFF03F840317440501E723260400FDB7AA
:105810008357240508489507BA971547B3E7E70269
:10582000B1078A07A297CC47EFF06FC14AA479D598
:105830000C486AA42285EFF04FC6C9B77A255E25C9
:105840006370F702EFE2DF9A1C499306170076A512
:10585000BA97838507002855EFF08FC06FE09F9BB4
:1058600082807E2589CFEFE2BF982A842855A14502
:10587000EFF00FBF7E24FD177EA46FE0BF998280FA
:10588000EFE29F945A252A8401EBEFF06FF4228512
:10589000EFF08FC36FE0DF961C49835A45038149BF
:1058A000BA9723800700032A850501498144054BE7
:1058B000B70B01008357C40563CEF904E30C09FC60
:1058C00085476315F9002285EFF0AFF7920483292D
:1058D0000401D2942685EFF04FCCAA854E85EFF0D7
:1058E0000FB64AA4854763FB2701A6852285EFF002
:1058F0004FDC2285EFF04FBD231654015A241C487B
:105900002285BA97238007005E240C487EA4EFF01E
:10591000CFB849B7139C4900529CE2852285EFF02D
:105920000FC041E96285832C0401EFF00FC7814766
:105930003387FC008306070081CA3307F50003079D
:10594000070019C3638CE6065A246314F706630B39
:1059500009046317690193854B622285EFF0EFB369
:105960009204D294A6852285EFF0AFD42685EFF07D
:10597000CFC2AA846285EFF04FC281473387F4001B
:105980008306070081CA3307F5000307070019C320
:10599000638AE602568763F357013E87931A07012D
:1059A00093DA0A010509939409014209C180135948
:1059B00009018509C20993D90941EDBD8507C207CF
:1059C000C183BDB78507C207C1834DBFEFE25F82C8
:1059D0008545EFF0EFF76FE0FF83EFE27F81FD5544
:1059E000EFF00FF76FE01F83EFE29F802A84BD3155
:1059F0002285EFF06FAD6FE0FF81EFE26FFF4111A5
:105A0000AA842EC6EFF04FA719C58547B245639704
:105A1000F400EFF0EFDB41016FE0CFFFE3DD97FE35
:105A2000304DCC4181462A84EFF0BF8DAA8421C13C
:105A3000B70501009385C5022285EFF00FA62685E4
:105A4000EFF0AFB5AA852285EFF02FA53709010049
:105A5000930549622285EFF04FA4CC442285EFF0F4
:105A6000CFA3930549622285EFF02FA36DB7B70549
:105A7000010093854500C5BFE9CDEFE26FF41C5DE1
:105A80004167130707F07D8F2A84AE8A31EBB70494
:105A9000FF00FD8CB1E8370700FFF98F614981C72E
:105AA000B70400FF41499307F00F130B89FF832CC4
:105AB0008405035CC405339D2701339B670185671B
:105AC0008149938D07F0938B079063C289036384A8
:105AD0000A06232C0402D6852285EFF0DFB6A1A8A2
:105AE000930400F00149C1B7C17421496DBF139AF5
:105AF0004900669A83270A00B3F7B70163937705D5
:105B0000D2852285EFF0AFA10DED83274A00145C0A
:105B100033F797006317D702B3962A0133F6A7012C
:105B20006311D602518F18DC6319090083278A009C
:105B300091EF232C04026FE06FECB3F76701FDD700
:105B4000814A8509C20993D9094141B722858297C3
:105B5000CDB782807C519DC3EFE28FE941112A8449
:105B600085451305F100829785476316F500830587
:105B7000F1002285113741016FE0CFE98280EFE229
:105B80002FE7EFF06F8F19C5B70501009385050B5F
:105B9000EFF0AF906FE00FE8030705009307700286
:105BA0006313F7000505830705001307C00563921B
:105BB000E702830715001307E0066388E702634CDA
:105BC000F700130700036384E702130720066382CC
:105BD000E7023E85828013072007638EE7001307E4
:105BE0004007E398E7FEA547EDB7A947DDB7814732
:105BF000CDB7A147F9BFB547E9BFEFE2CFDD3684A6
:105C000041112A898386050015C6930740026386E1
:105C1000F6007D5541016FE04FDF83871500F5DB0E
:105C2000938706FD93F7F70F25476367F7148544BD
:105C3000014725A093077002639BF6008387150038
:105C4000638807162E85893F08C00145E1B7930791
:105C5000D002FD540547E395F6FC2E970306070096
:105C60009307000381466311F602830717001306AA
:105C700080058D4693F7F7FD6388C700130620045F
:105C800085466383C70089461306E002050783073C
:105C9000F7FFB5EB9387F6FF13F7F70F894763ED2F
:105CA000E70693874184BA97038807009387818426
:105CB000BA978387070013871400133717003E979E
:105CC000BA95014901451303E002254EA94E9548B6
:105CD00083870500A9E79147639DF608630B0908D0
:105CE000EF706011AA894A85EF70E010AA854E8591
:105CF000EF60D02A2A892685EF708003AA854A851D
:105D0000EF60B05491B783070700E391C7F88307AA
:105D10001700ADDF9146BDBF8147294869BF8505A2
:105D20006387670493F7F70F3307A802138507FD0E
:105D30001375F50F6368AE00620561853A95330906
:105D4000D90379B71386F7F91376F60F63E7C8001E
:105D5000938797FA13958701CDB71386F7FB1376D0
:105D6000F60F0145E3ECC8FC938797FCE5B70549BE
:105D700085B73385A402C9BD930740026393F60239
:105D80008387150095C703268905850581464A85C1
:105D9000EFF02FD7AA85E30E05E64A85EFF0CFDDB9
:105DA00065B5E38806E6930720026393F600850550
:105DB0002E8581449309C005130A200239A86397F0
:105DC00037032EC6930A1500C13BB2452300A90034
:105DD00056858504C2040505C18083070500338903
:105DE0009500F1FF230009000CC085B563954701BC
:105DF00023000900F9BF2300F900E1BFEFE2AFBDC6
:105E00000111AE893289AA8A1306000281450A85EA
:105E1000B684EFE0EFC003D42900130AF9FF3D88F0
:105E200063532401528491040149634F49019D4702
:105E30007D5563E78702C1679387C7430A043E9491
:105E40001C4083A8890082878C40931629008A967B
:105E5000014656855D3391042DE10509F9B7829815
:105E600005616FE08FBA02458298DDBF9245024519
:105E70008298FDB72246924502458298D5B7B24630
:105E80002246924502458298E1BF4247B2462246E9
:105E9000924502458298E9B7D2474247B246224628
:105EA0009245024582986DBF6248D2474247B2464A
:105EB000224692450245829865B77D5555B713D75E
:105EC00015408A05AA958147F11563C3E7008280D2
:105ED00090411441850710C194C11105F5B711CD4A
:105EE000830705001307D0026389E70089C59385FE
:105EF00057FD93B515002E8582808545EDBFB737D8
:105F0000002083A7C7211CC1B737002083A7072221
:105F10005CC183A741801CC583A781805CC5B7375E
:105F2000002083A747221CC9B737002083A78722F8
:105F30005CC9B737002083A787211CCD8280184118
:105F4000B737002023AEE7205841B737002023A001
:105F5000E722184523A2E180584523A4E18018498F
:105F6000B737002023A2E7225849B737002023A4DF
:105F7000E722184DB737002023ACE7208280EFE2FC
:105F80002FA4BE8D8327480001113AC6AA8CAE8A81
:105F90003289368B4284634BF00085472322F80018
:105FA0002328F800232A0800232C080063970C00FC
:105FB000FD54268505616FE06FA4E38B0AFE631430
:105FC0000900E3070BFE5C40E3D497FF139727001B
:105FD0005697184371DF030607009306D002631833
:105FE000D6000307170001E785075CC0D1B7630D32
:105FF0000900830709001307D0026381E702130732
:10600000B002094A638DE700370501001305C54555
:10601000EF70E013333AA000060A19A0054A0509FB
:10602000814B630A0900030709009307A003631467
:10603000F7000509854B04488547638AF4048329E2
:106040004400139C2900569C032D0C00E3020DF61E
:1060500063010B0283070D001307D002638FE71E55
:1060600063890D001307B0026395E7008547638AD3
:10607000F41E044863110910850404C8EA940387D8
:106080000400FD5D631A0722054718C835A483295B
:106090004400139C2900569C032D0C0063069A06AD
:1060A0000947630EEA06232A3401232C04005840D2
:1060B000EE8593172700D69703AD07003AC86A8587
:1060C000393D424711C5631B0D0023223401CDB574
:1060D0001C4C050758C085071CCCD1BF83060D009A
:1060E0001307D002E39DE6F483071D00A9FB044CCF
:1060F0006285A685E933938514006285C933854599
:106100006285753B5C48CDB5EE856A85C93B05F96E
:106110008509232234012320A40144C459BDEE85FE
:106120006A85753BE31D05F061B53308A541330869
:10613000B841A1AA424542869A853ACC42CA1ACEB3
:10614000EF70800B524862471DE172431A85EF7071
:10615000601F52486247630E0501FD576388FD00CA
:106160009307F0035CC49304F003A1B5A68D8504E6
:1061700039AAA68D3DA2B3079D00838507004A85F5
:10618000EF70C01A938714003307FD0019E91CC88B
:1061900083070700F1F785098547232234011CC8CE
:1061A000C1B7030615009305A00381476318B60025
:1061B0008305250089476383C500854703060500DD
:1061C00050C405466389C7060946E397C7EAFD5DE3
:1061D000030607009306D0036313D6000507830662
:1061E000070091E2014718C0054718C88144630EB3
:1061F0000A0C21A20145030607009306D00363138E
:10620000D600050783060700F9FE138719006349C6
:106210009703144499CAFD566381DD029307A003D6
:1062200063940B009307F0035CC458C09304A0036D
:10623000E3910BD80DBFFD5D7DBF83070500EDB772
:1062400003274C00854418C0054718C84DB763198B
:10625000D70A81445DA04444A9BB8547E39BF4E091
:1062600004C8832D04019305D003B307BD013E8507
:106270003EC8EF70A00B2A87E31905EA6A85EF7024
:10628000600C3307AD003308B541FD5D81441396C2
:1062900044005A9603230600E31E03E87D56E38A72
:1062A000CDDC93964D00DA96D0428546E304D6F4D1
:1062B0008945E30FB6F014C823200400184885462A
:1062C000E3170AF8631ED702814403298401630699
:1062D00009025848CA85938914000A07BA9A568554
:1062E000EFF0FFBDB30539015685EFF05FBDCE85F8
:1062F0005685EFF0DFBC832944018509CE9444C064
:106300007D57E38AEDF4B24799C323A0B701939771
:106310004D003E9B83278B008324CB00E38B07C873
:1063200084C3814479B1EFD2BFEC79712A844808E3
:106330002EC632C436C23AC0EFF07FBC0247924646
:106340002246B2451308410181472285EFF03FC341
:106350002A844808EFF0BFBE228545616FD09FEBCD
:1063600001A0B707EFBE37E700E0938707083CC7F7
:1063700001A0EFD2FFE7374400209307846583C76D
:1063800067050547130484656384E706B9CB0947AD
:106390006385E7060D476387E7068345C402370533
:1063A000010013058573EF10C0538355440537056D
:1063B000010013054575EF10C0526C443C4437058D
:1063C0000100B205D183DD8D13054576EF106051D4
:1063D0002C48370501001305C577EF1080506FD0AA
:1063E0007FE3370501001305856DEF10804F75B70A
:1063F000370501001305056FCDBF370501001305F3
:106400008570E5B73705010013050572F9BFEFD2B6
:106410003FDEEF10E04C0145EF10E058EF10F04880
:106420001305B003EF10F05DEF20B05EEF10B00089
:10643000B7350240938505400145EF00703E0144A9
:106440009304800C0145EF4020460DC1EF2090469B
:1064500005E9370501001305456BEF108048113F32
:10646000EF10C00A0545EF108044DDBFB3779402FA
:1064700099C3EF10E05E0545EF1060430504D9B7FE
:10648000370501001305456CEF10A045D1BFB717C4
:106490000240984FB70600801367170098CFD8576F
:1064A000558FD8D7D857B70600F8FD16758FD8D7AF
:1064B000D857B70600C9FD16758FD8D7D857B70675
:1064C0000012558FD8D7D857B7060040558FD8D768
:1064D000D84B856693860680558FD8CBB7E700E00A
:1064E000A38A07443707200023A4E7108280EFD255
:1064F0003FD0370501001305855DEF10803E37055D
:1065000001001305C561EF10C03D370501001305FB
:106510008562EF10003D3705010013050565EF109A
:10652000403C3705010013054567EF10803B3705F8
:10653000010013058569EF10C03A6FD0BFCDEFD2CF
:106540003FC84111C16AAA8B2E8A02C48144814985
:106550000144B70C0020370C010037390020370BFD
:106560000100FD1A370D0100380093860C00130658
:106570008C4CD2855E85453BFD576313F5049147EE
:10658000630AF4146387090089C483870400639C49
:1065900007103705010013054551EF10803463984B
:1065A00009003705010013058554EF10803363910E
:1065B0000412370501001305C557EF10803209AAF0
:1065C00093073006630BF50263CEA700930710060E
:1065D000630CF50283250A0013050B490D44EF10E7
:1065E000403059B793078006630DF50093074007C5
:1065F000E312F5FE8324C92119A08329C921094486
:10660000A5B7F53511448DB70325C92101466C00A6
:10661000EF707044B247AA8D8387070089EFB37586
:1066200055011305CD46EF10C02B13950D01418187
:10663000EF10303D15BF83250A0013050B49EF10FD
:10664000402A1DB7D6852685EF6070481DE93705BD
:106650000100D6851305054DEF10A02801466C00FA
:106660004E85EF70503FB247AA8483870700A9C3C5
:1066700083250A003705010013050549EF10602640
:1066800081A805091379F90F93172900DA9783AACE
:106690000700E3990AFA37050100A6851305055B93
:1066A000EF10202405A8456B0149130B0B80E9BFAF
:1066B0009315050137050100C1811305054FEF1042
:1066C000402293950401C18113051900EF10703B1E
:1066D00011E0313DB737002023AE0720B737002047
:1066E00023A007220547B707002023AEE72613079C
:1066F000F00323A4E180228541016FD03FB0EFD2A7
:106700003FAFEF00306F420541856FD0BFB0EFD291
:106710003FAE2E86AA853735002013050553EFE0DE
:106720004FD0420541856FD0FFAEEFD27FAC2E86B1
:10673000AA853735002013050553EFE06FC04205E9
:1067400041816FD03FADEFD2BFAAB73500203735BA
:106750000020130600409385855413050553EFE090
:106760002FAF37350020B76700001307452C9387FC
:10677000E76F3CD7B7350020B76700009387E77015
:1067800013060020938505331305452C7CD3EFE0D9
:106790001FD56FD03FA8B7160240D8421146318BA3
:1067A0009387C180630BC7022146630DC702371769
:1067B0007A001307072098C3371702405843118304
:1067C0009376F70037070020130707053697142341
:1067D00098433357D70098C382803727B7001307F1
:1067E00007B0D1BFD842D442416649833D8BF18E78
:1067F0001306270015CF3D47630FE6024147630F9D
:10680000E602454781456313E6004146A1E237476A
:10681000024003270780418B0DC737177A00130703
:1068200007203306C70290C3C1D99843058361B7D7
:1068300081454946E1BF85453546C9BF81453D464D
:10684000F1B737173D0013070790E1BF3715024036
:1068500058559316F700585563DF060411833D8B96
:10686000930617003727B700130707B03357D7022F
:1068700098C35455A182BD8A8DE295463307D7024D
:10688000058398C337170240585794433D8B05073B
:1068900033D7E60298C3984369B705456394A600C9
:1068A000E546E9BF3D456396A600D1463387E6023B
:1068B000C9BF8906E5BF3D8B930617003727B70090
:1068C000130707B03357D702F1B7EFD27F92B7174C
:1068D00002409843B706FFF041111367170098C3B1
:1068E000D84337060200758FD8C39843B706F7FE22
:1068F000FD16758F98C39843B706FCFFFD16758F7C
:1069000098C3D843B70601FFFD16758FD8C39843C7
:10691000B70600ECFD16758F98C33707FF0098C7C0
:1069200023A6070202C402C69843C166558F98C3C6
:10693000B716024005679C42F18F3EC6A247850705
:106940003EC4B24781E7A247E397E7FEB71702408C
:106950009C431397E7006359070685473EC63247B5
:106960008547631FF704B7170240D843B706C1FF36
:10697000FD16D8C3D843D8C3D84313670740D8C33C
:10698000D843758FD8C3D843B7062900558FD8C3CD
:106990009843B7060001558F98C398439316670034
:1069A000E3DD06FED843B7160240719BD8C3D84337
:1069B00013672700D8C32147DC42B18BE39EE7FE73
:1069C000D93B41016FD01F8502C651BF45651305F4
:1069D000459282808D476307F50089476308F5007B
:1069E0000145828045651305858A828045651305CA
:1069F000C582828045651305859382808D47630734
:106A0000F50089476308F500014582804565130557
:106A1000059C82804565130545948280EFD24FFD29
:106A200093150601AA84C18113858185EFF0FFCFFC
:106A3000930600401386818595452685EF20105FDB
:106A40006FD04FFD9147014563EEB706ADC5638733
:106A5000F5069385F5078605B747002093F5F50FF2
:106A600093877770AE979023B7470020938767701E
:106A7000BE958C2137450020374800208905814785
:106A80007916130785941308886F93D6170063C887
:106A9000C700369723000700130585948280B388CA
:106AA000F500C29883C80800BA96890723801601AA
:106AB00093F7F70FD9BF1385C18482803715010082
:106AC000130505AC82809D47639AF502EFD24FF221
:106AD00005472388E18093060040B73700201386DE
:106AE0008185954523860722EF20505437170040B3
:106AF0001E2393E717001EA36FD0CFF18280EFD241
:106B00002FEFB73400209384E422962041112A8489
:106B10008DCE83C7018195CB1384418110409305AD
:106B200050080145EF20104314409387818523903E
:106B30000400138707406398E600938707601CC032
:106B400041016FD02FED18C0E5BF228532C6EF306E
:106B5000905132463375A60211E909CA81460146B1
:106B6000930550082285EF20F03ED9BFB7370020AB
:106B700023860722F1B785476390F51418321C224B
:106B800022075D8F3C22C2075D8F3C32E207D98F1E
:106B90008DC7B756004093860680D62603A7C180CE
:106BA000C206C18663C706040583B357F702375789
:106BB0000040C207C1832314F780782275CFB757EE
:106BC00000409546938707806317D702DA27B1669E
:106BD000558FDAA75C32BDE7375700408357C7802F
:106BE000C207C18393F7F7BFC207C1832316F7809B
:106BF0009DA8799B5DBF99466319D700DA27A166E6
:106C00004A074983DAA7DA27E1B79D466319D70017
:106C1000DA2791664A074983DAA7DA2755BFA546DE
:106C20006319D700DA2785664A074983DAA7DA2786
:106C300045B7DA274A074983DAA7D6277D777D1734
:106C4000758F41BF0547639CE702B757004003D7E4
:106C5000C780136707402396E78003D7C780136771
:106C600007202396E7805C228DEF3757004083563C
:106C70000781F577FD17F58F2318F7808280094784
:106C8000E393E7FE375700408357C78093E70740F9
:106C90002316F7808357C780C207C18393F7F7DFB6
:106CA000A1B70547639BE700B757004003D70781AB
:106CB0008D66558F2398E78082800947E39EE7FE23
:106CC000B757004083D6078175777D17758F239856
:106CD000E78003D707818966E9BFB5ED1C2213075A
:106CE0000008639AE7063822058B39C31432371738
:106CF000014013070780858A95CA1CCB37170140CE
:106D000083270780B706003092079183D58F232011
:106D1000F7803C22898B9DCB1832B71701409387AF
:106D200007C0098B0DC30567D8CB82805CCBF9B750
:106D3000371701402328F78083270780B706008094
:106D400092079183E1B7056798CB8280B71701401E
:106D5000056723AAE7C0828095E5930710086311B1
:106D6000F602B717014083A58780938707C09C4729
:106D70009D818589139747016354070093E565005A
:106D80002E8582808145EDBF63980512EFD2AFC496
:106D90003284B6843E8AD9C22E89B71401408569EF
:106DA000631449016FD06FC683A7C48093F70708A7
:106DB00081EB93771400138704C0B9CB232A3701E2
:106DC0001145EF00703083A7C480114593C70708B1
:106DD00023A6F480EF00502F938704C0D847137781
:106DE000070811E7137714001DC723AA37011145BF
:106DF000EF00902D83A7C4801145050993C70708AC
:106E000023A6F480EF00502C05801379F90F49BFB9
:106E10002328370175B723A83701D1BF21461D8E1E
:106E20003314C4001374F40F371901408569E38BE0
:106E300044F78327C98093F7070891EB93178401E0
:106E4000E187130709C063D30706232A37011145D9
:106E5000EF0090278327C9801145930A098093C7C3
:106E600007082326F980EF0030268327C98093F78F
:106E7000070891EB93178401E187130709C063DAD0
:106E80000702232A37011145EF0010248327C98008
:106E90001145060493C707082326F9808504EF00EF
:106EA000B0221374F40F93F4F40F51B72328370171
:106EB00079BF23283701C1BF8280EFD2CFB101440F
:106EC000639B0510AE843284B6893A8A631B061030
:106ED000856A37190140938A0A80638E440F1145F1
:106EE000EF00901E8327C9801145060493C7070849
:106EF0002326F980EF00501D8327C9801374F40FF7
:106F0000130B09809D83858B63893701832789C093
:106F1000B3F7570199C3136414001145EF00D01A59
:106F20000327C980134707082326E9808327C980E0
:106F30009D83858B6389F900832789C0B3F7570147
:106F4000C5CB1364140011458504EF00F01793F4CA
:106F5000F40F61B71145EF00301783A7CA801145C0
:106F6000858093C7070823A6FA80EF00F01583A752
:106F7000CA809D83858B638B370183A78AC0B3F753
:106F8000670189C793E404F893F4F40F1145EF0007
:106F9000B01303A7CA801347070823A6EA8083A774
:106FA000CA809D83858B6389F90083A78AC0B3F764
:106FB00067018DC793E4040811450509EF00D0105F
:106FC0001379F90FE31849F921443304244133D4E8
:106FD00084401374F40F22856FD02FA393F4F40729
:106FE000E1BF056B0149B71A0140130B0B80D9BFF4
:106FF0001374E40F89BFEFD2AF9FEF20C0296FD089
:107000006FA18547639DF500B7070240D84F799B74
:10701000D8CF90D794D3D84F13671700D8CF82809A
:10702000EFD20F9D2A840545AE84EF00D0170945A5
:10703000EF0070170545EF00D01F0945EF00701FE6
:10704000B7370020238D0722EF00B024B716024087
:107050009C4EB71501401307000893E7C7009CCE6C
:1070600023A8E580056623AAC5C01305068023A8CA
:10707000A5C003A7058037080030938705C0120715
:1070800011833367070123A0E58003A745C0B70537
:10709000F1FFFD156D8FB70503004D8FD8C3D843A1
:1070A000BD65370804004D8FD8C3D84E130606B00F
:1070B00033670701D8CE984E1367970098CEB7066E
:1070C0000140D8421377F7FCD8C2D4437D77130828
:1070D000F70FB3F60601D18ED4C388CBD443130780
:1070E0001795CD8ED4C3B757004083D6C7809387FA
:1070F0000780758FDAA7DA271367C701DAA7962BFF
:1071000075777D17758F9AABDA2B4207418313771A
:10711000F7CF42074183DAABDA2B1367070CDAAB00
:1071200003A7C180DE27C207C18763C50722B787CF
:10713000030093870740B357F702C207B7550040D3
:10714000C1832394F580130300FAB7E600E0A38B14
:107150006642B707800023A2F610371602405C4A49
:10716000138805809385458093E717005CCAB707AD
:10717000024023AE070083A8C70113050006374964
:10718000002093E8280923AE170123A00702CCD3DF
:1071900023A4070223A8070283A8070393E8680A29
:1071A00023A8170385689388088023AA17038CDF18
:1071B000B745002093858596CCDF238E6640B705C2
:1071C000001023A0B610A38EA640B708002023A06D
:1071D00016118C5B93E515008CDB8355C80089671D
:1071E000DD8D2316B8005C4E37180140B70510FF3F
:1071F000B3E717015CCE1C4EFD1593E747001CCE8C
:1072000083270880ED8F2320F880B777004083A57F
:107210000740370802E07D18B3F5050123A0B74009
:1072200083A507403708020093880740B3E50501AE
:1072300023A0B74083A507404168B3E5050123A01B
:10724000B740B74500209385456FBC3103C8250082
:10725000C565A207B3E7070123AAF8005C4E938532
:1072600085AC93E707015CCEB71700402390070079
:1072700092231366460892A32392070023960700E1
:10728000D22713661600D2A737460F00130606242E
:107290003357C7027D17420741839AB71307703EE1
:1072A000DAB7239207022383A6449307000423A49A
:1072B000F6102285EF30604EB74500209307896FA6
:1072C0000947930610080146938585162285EF30FD
:1072D000206BAA852285EF302051B7450020930707
:1072E000896F114793063008054693854518228516
:1072F000EF300069AA852285EF30004FB7450020A6
:107300009385051A2285EF406015AA852285EF3006
:10731000A04DB74500209385C51B2285EF40001482
:10732000AA852285EF30404C228593850182EF307B
:10733000A04E228593858181EF30004E3776000084
:10734000130666ACA6852285EF308057EFF0AFBFFD
:107350006FC05FECF1669377E7FF93860620B3D7A3
:10736000D702E1BB0145EF30E074371700401E2B18
:10737000C207C183F99BC207C1831EAB73002030D3
:10738000EFC27FE5B7070240C05B85663739002052
:107390009386068083578923338486404204B74905
:1073A00000201386899641803E96130989236365E0
:1073B000F4021D8C93140401C1800547A6868545FF
:1073C0000145EF3040780354090026941374F47F8C
:1073D000231089006FC07FE39D8EC206C182B30473
:1073E000D400014785450145EF30E075C204C180F6
:1073F0000547A28613868996D9B7B7570040411131
:1074000022C61384078083D70780C18B99C35E206F
:10741000853FB757004003D707808567938767800C
:10742000F98F91C35E20375700408357078032445D
:10743000C207C18393F7F7F9C207C1832310F7800E
:10744000410173002030B70702409C4393F70702C5
:1074500089C785450145EF307005370702405C4319
:1074600093E7070F5CC373002030B70702409C43CB
:1074700093F7076099C7B757004093870780DE23CB
:107480000137B7060240DC420567130707F0D98FC2
:10749000DCC273002030B73700209387072301C672
:1074A000054798A38280238007008280B737002099
:1074B00083C7072393F7F70FA9CBEFC27FD3B73466
:1074C00000209384E42296208DCEB7370020938746
:1074D000C72298231DE71384418110400547930577
:1074E0005008014598A3EF20E0261440938781853A
:1074F00023900400138707406397E6009387076093
:107500001CC06FC03FD118C0EDBF8280EFC25FCEFC
:10751000C12315E5373700201307A7231C23850750
:107520008D8B1CA30947638CE7040D47638EE7042A
:10753000054705456383E704ED290945DD2937370C
:107540000020930647239C421304472385079CC2CF
:107550009306803EB3F7D70299E3014511231C40FF
:107560005147B3F7E70299E7373500201305452C5B
:10757000EFE04FDE253F6FC0FFC9FD2E7DBF054503
:107580004D290945D52E65BF0545FD26DDBF5D7139
:1075900022D4373400201304E422BEC21E20BAC015
:1075A0002EDA03A74181930500209D8D26D2C205C6
:1075B00032DC36DE9384018154182A86C18133057A
:1075C000F70006D6C2C4C6C636CE23800400EFD06C
:1075D0008FC61E20420541818507AA972AC61EA094
:1075E000EFF0DFECB250225485479CA03245925414
:1075F00061618280EFC2DFBFB734002083D6E4220E
:1076000093070020958FC20723880180C1831389C7
:1076100001819384E4222E8463E3F5003E8483A7F2
:10762000418142044180AA8522863385D700EF50EC
:10763000F03E9E20A2979EA0EFF05FE785472300D3
:10764000F90022856FC01FBDEFC29FBA3715010038
:107650001305C5AE7924370501001305C561512412
:107660003705010013058562AD2C371501001305A0
:1076700005B2852C371501001305C5B49D246FC0D4
:107680007FB9EFC2FFB3B7170100371B0100B71B6B
:10769000010083ACC7A3B717010003298BA483297A
:1076A000CBA403AA0BA583AA4BA503AD07A4011184
:1076B0002A8CAE8402CE014437080020B71701009F
:1076C000FD5D93060806138687AA7808A68562855D
:1076D000EFE07FC5B7170100370800209308D006F8
:1076E000631AB50319E0EFF03FF6B737002023AE79
:1076F0000720B737002023A007220547B70700203F
:1077000023AEE7261307F00323A4E1802285056159
:107710006FC0DFAE0544E30615FB930760076309FE
:10772000F50093078006631DF50AEFF0FFF169B7D6
:10773000B737002003A5C721B77D0040EF50D02008
:10774000E685EF508030EF50E0774A86CE86EF40F6
:10775000E0515286D686EF40B02CEF40F0774205DC
:10776000418123AAAD4083A74D413747002013072D
:10777000476FC207C1833CA3A1833CB3EF10B03174
:1077800003A54D41EF40107B03268BA48326CBA499
:10779000EF40102903A60BA583A64BA5EF40004D93
:1077A000AE862A86EF309059EF50807CEA85AA8D0C
:1077B000EF50A029EF506052420541811306400668
:1077C0003376C5026E8532C6EF502051324693158E
:1077D000050137150100C181130585A51922E9BDF1
:1077E0008C4037150100130585A7E5280944E9B544
:1077F000138781821C43B7560020938646AD3E9581
:10780000636BD500B78600209386068063E5A600EB
:1078100008C33E858280FD57EDBF01A09791FF1FF1
:107820009381C125170100201301C17D17A5000018
:10783000130585AB9785FF1F9385C57C13868185CE
:1078400063FAC5008322050023A0550011059105A8
:10785000E3EAC5FE17C5FF1F1305459C97D5FF1F1B
:10786000938585276377B500232005001105E36D17
:10787000B5FEFD42739002BCAD4273904280B76288
:107880000000938282087390023097C2FFFF9382B8
:10789000A27793E2320073905230EFF00F8397F2A9
:1078A000FFFF938202B77390123473002030814738
:1078B0009D666393A700828013870608010001007C
:1078C0007D176DFF8507F5B701476313A700828019
:1078D000C1470100FD1793F7F70FE5FF0507F5B75F
:1078E0008280797106C62ECA32CC36CE3AD03ED2CC
:1078F00042D446D6EFF0BFC9B24045618280B73767
:10790000002083C7B723A1C7B73700209387E72399
:107910008E2395CD37070240304715EA7043799A98
:1079200070C32CC72390070093870183904330CB0B
:10793000744393E6160074C3374700201307871D6E
:107940006316E600374700201307873D98C38280FF
:10795000B707024098439316270163DD0600D8431A
:107960008966558FD8C3B737002083C7C72399E3EB
:10797000EFF0FFF873002030894763E5A702138713
:10798000018593171500BA979A2309CF93172500FD
:10799000370500201305050A3E9514418547B39726
:1079A000E7009CCA8280894763E4A708EFC25F842E
:1079B000C56713172500938747B7B7150240BA97D5
:1079C000944D9C433A8637070020D58F93860185D6
:1079D0009CCD93171500B6979E231307070A32977D
:1079E0009D46184363E5F60210438A07BD46B396E9
:1079F000F60093C6F6FFF18E14C310438D46B3977D
:107A0000F600D18F1CC3EFF03FF76FC0BF80E117C6
:107A100050438A07BD46B396F60093C6F6FFF18E33
:107A200054C350438D46B397F600D18F5CC3E1BF7A
:107A30008280894763E5A7021387018593171500A4
:107A4000BA979A2309CF931725003705002013050D
:107A5000050A3E9514418547B397E700DCCA82804A
:107A6000894763E7A7029317150013870185BA9723
:107A7000962399CE13172500370500201305050A14
:107A80003A9518418547B397D7005047B18F5CC7E7
:107A90008280371702401C4FFD769386F60F93E7DE
:107AA00007011CCFB71701409843758F98C39843BF
:107AB000856693860680558F98C3D847136747001D
:107AC000D8C78280B717014088470981058982801D
:107AD000EFC20FF29384C182942005471384C182C0
:107AE0006391E602EFF01FFE09ED294523800400B3
:107AF000EFF0FFDBEFF01FFDB337A0003E856FC056
:107B00006FF1EFF03FFC854775D91CA0C5BF01118F
:107B10002304010025471C846378F7042304010033
:107B2000A54621461C8463FCF606231501002304A8
:107B3000010095461C8463FEF60C38853C85994609
:107B40000D46B3F7D702056513050580B3D7C70205
:107B50003357D702BA97C207C1837C853C8505613C
:107B60001D8D4205418582801C4593E787001CC519
:107B70001C45A18BF5FF1C4593E747001CC51C4520
:107B8000918BF5FF74451C8410108607B2972396DD
:107B9000D7FE1C84850793F7F70F5C84ADBFA30461
:107BA00001009C846378F6001C84850793F7F70F27
:107BB0005C848DBF98849C840C100607850786071B
:107BC0002E97AE970357C7FE83D7C7FE63FDE70224
:107BD0009C848607AE9783D7C7FE7C859C84988457
:107BE00085078607AE9783D5C7FE93171700181031
:107BF000BA972396B7FE9C8438850C1085078607B4
:107C0000AE972396E7FE9C84850793F7F70FDC84F5
:107C100049BF1C841010388589078607B29783D71F
:107C2000C7FEBA97C207C1837C851C84850793F77A
:107C3000F70F5C8401B7EFC2AFDBB7170240984F74
:107C4000B166374400201367476198CFD843558FFA
:107C5000D8C3B71701409843C576FD16758F98C3F2
:107C600083A607803707F1FF7D17F98E23A0D78001
:107C7000B727014093870740D443758FD8C39847EF
:107C8000FD769386F67F1367270098C7D84313774E
:107C9000F7EFD8C39847758F98C79847B7060E0077
:107CA000558F98C7D857B70610FFFD16758FD8D7D0
:107CB000D8478566138606E0518F98CBD85B1306AC
:107CC000446F938646CE019B1367D700D8DB3832CA
:107CD0002C221304446F22074D8F1307270332070A
:107CE0003346D702D0D337C6F9FF32973347D7028E
:107CF000B70600FCFD1698D7D843019B1367D70041
:107D0000D8C398471367170098C7D843758FD8C34F
:107D10009847B72601401367870098C703A7864096
:107D2000218B6DFF03A786401367470023A4E6401D
:107D300037270140130507401C45918BE5FFEFF005
:107D40001FDDB73700202390A724B7370140938762
:107D50000780D843B706F1FFFD16758FD8C3984743
:107D6000FD769386F67F1367270098C7D84313776D
:107D7000F7EFD8C39847758F98C79847B7060E0096
:107D8000558F98C7D857B70610FFFD16758FD8D7EF
:107D9000984B9D66558F98CBD85B019B1367470026
:107DA000D8DB383034202207558F13072703856628
:107DB000938646CE32073346D702D0D337C6F9FF73
:107DC00032973347D702B70600FCFD1698D7D84341
:107DD000019B13674700D8C398471367170098C7DC
:107DE000D843758FD8C39847B736014013678700CB
:107DF00098C703A78680218B6DFF03A78680136732
:107E0000470023A4E6803737014083278780130487
:107E10000780918BFDFB2285EFF07FCFB7370020E5
:107E20002391A724B727014003A78740B706500036
:107E3000558F23A4E7401C44D58F1CC46FC08FBD51
:107E40004111B737014026C49384078083A7078078
:107E500022C64AC2858BA1CFE04437150100130525
:107E600005B81319040113590901CA85EFF07FA75A
:107E70008567138717FC4A84637B2701FD17DCD0D5
:107E8000130424FCB737014023A4878211A8930769
:107E9000E903DCD09307D003E3E427FF23A4040223
:107EA0003737014083270780F99B2320F780B727C6
:107EB00001409384074083A70740858BA1CFE0440E
:107EC00037150100130505B91319040113590901E8
:107ED000CA85EFF01FA18567138717FC4A84637B6F
:107EE0002701FD17DCD0130424FCB727014023A48D
:107EF000874211A89307E903DCD09307D003E3E49A
:107F000027FF23A404023727014083270740F99B5A
:107F10002320F7403244A24412494101730020302B
:107F200085673747002093870789231CF75C9347B1
:107F3000F5FFA2075D8D83D741831307875DE1C1FC
:107F400042055D8D93050704BA87E146130810F8D2
:107F500085480D4323810701137E150063090E0A2E
:107F6000A38167009106C2068907C1820581E39358
:107F7000F5FE93851600930710F8C2052301F70458
:107F8000C1811305600B930730046369B5021305C3
:107F9000700B0D8D1308D006635BA800938646F91D
:107FA00093950601A3010705C18193074004930639
:107FB00070FB3305F7008D8E14A185071DCAB3062B
:107FC000F700130600F990A29386170093F6F60FB8
:107FD000BA96214690A29386270093F6F60F8D0756
:107FE000BA96130610F893F7F70F90A23E978546BE
:107FF00014A38507373700202302F724828093C615
:10800000F7FF220593F6F60F558D22051DBFA381BC
:108010001701890689BF3748002093074018231CA1
:10802000F85C314783D741831308885D6399E50481
:10803000FD8B93967700B367D5004287014693087E
:1080400010F8130320F8054593F61700A1CE23017D
:1080500067009306160028B393F6F60F8583090789
:108060006390D504090606061376F60F3298B737E3
:10807000002005062300A8002382C72482803D47F4
:108080006399E50093F7F70F13977700B367E5005F
:108090006DB7CE074167B1837D17F98FC98F71BF67
:1080A00036865DB7230117016DB783A6C1802947C6
:1080B000A567B306D70293870747130600048545D3
:1080C000B3D6F602B71702409506B3D6E602984F2C
:1080D0001367570098CFD84F13673700D8CF37179B
:1080E0000140232AC78083270780370600F17D16C9
:1080F000F18F3706000BD18F2320F7803707004020
:1081000023100700930770255EB79307F0081EB78A
:108110004EAB1E231306000693E707081EA31E237B
:10812000C206C207C183F99BC207C1831EA3B7E77A
:1081300000E02386C742056623A2C7105E27C182DE
:1081400093E717005EA703560740930707404206D0
:1081500041821376F6C8420641822310C740138637
:10816000F6FF42064182D2B723940702CEAB923388
:10817000A16542064182799A4206418292B3922FCA
:1081800042064182719A4206418292AF922F420684
:1081900041821376F6F84206418292AF922F13661F
:1081A000060792AF239A070292331366260092B312
:1081B00092331366160092B303D647044D8E239272
:1081C000C704922F420641825D9A4206418292AFD5
:1081D0008357074093E707082310F740835707406A
:1081E00093E717002310F7408D47B3D6F602B73751
:1081F0000020FD162393D724B7370020A38207243D
:108200008280239AA18282807D15A54763E8A70416
:10821000C567938707BA0A053E951C41828783A7E5
:10822000C180A9462567B387F60213070747B3D76E
:10823000E702370700409507B3D7D702C207C183CB
:108240009386F7FFC206C1822316D7420D47B3D7E4
:10825000E70237370020FD172313F724828083A716
:10826000C180A9462967B387F602130707C4C1B7BF
:1082700083A7C180A9462567B387F602130707CAFB
:108280007DB7370700401A23058B19C37D558280BF
:10829000EFB21FF6B73400202A89A38204242E846B
:1082A000EFF09FF61305F9FFA5479384542463E686
:1082B000A702C567938787BC0A053E951C41828744
:1082C0000146814519A0014685451375F40FEFF06D
:1082D0003FC513078025239BE182B737002003C7E2
:1082E0004724930700067D5563ECE7029820B747C3
:1082F00000209387875DBA979C231307802501454B
:1083000093F7F707B387E70237070040FD17C20767
:10831000C1835EB7231207021E2393E717001EA333
:108320006FB05FEF054671BFB1451375F40FEFF005
:108330009FCE45B7BD45D5BFD145C5BF3747002006
:10834000B78701819306875D938717109CC29307B7
:108350001018DEA283D741831374F40F930610F82C
:108360009A0793F7077C5D8C9307875D9385670178
:108370001307875D0546137504401DC1F0A3F4B3D0
:108380000604420489074180E397F5FE85475CAF08
:10839000B737002075472382E7241307801B25BFCA
:1083A000F4A3F0B3F1BF37470020B706810193076C
:1083B000875D9386662894C3B786018193861610DD
:1083C000D4C3B78602829386161094C783D741839D
:1083D0001374F40F8546A2075D8C42049307875DF2
:1083E0004180938507021307875D130610F8137504
:1083F00004400DC1D0A7D4B70604420489074180C8
:10840000E397B7FE99472306F702B7370020130713
:10841000D00251B7D4A7D0B7C5B7B7370020373689
:108420000020938657248345462498221386572498
:108430006375B706B74700209386875DBA960385B4
:1084400006009386875D63550504B737002003D582
:108450006724B7070040239AA7429307170093F7B2
:10846000F70F1CA263F0B702B6979C2303D7618372
:1084700093F7F707B387E70237070040FD17C207F6
:10848000C1835EB7B707004079579AAB73002030BD
:10849000B7070040239A0742C9B7370700401E2399
:1084A000C207C183F99BC207C1831EA3231A0742D7
:1084B00023800600C1BF378701405C4393F707F074
:1084C0005D8D48C38280B737002083C88724B737C3
:1084D000002083A7C724B745002093868564231A0C
:1084E000F5049E229842230B150513988700A1835B
:1084F0003368F8009357870113F6F70F8987BD8B10
:108500001CB1DC4241832312050113D80701135328
:1085100066001378F80F0D8A38B113D7870130A1A0
:10852000120713564800518F13D687007AA113778C
:10853000F60F2300650013537700A304650013535F
:1085400066401373130023056500135356401373DD
:108550001300A305650013534640137313001378EB
:10856000F8002306650023040501A3060500054362
:10857000944693858564637513010D436399682060
:1085800013D786019378F70F8A0713D3680093F700
:10859000C73FB3E7670037030400130303C02A068D
:1085A000337666000563130303C0337666000D87D8
:1085B000D18F1D8B13D6060158A91377F60F15839B
:1085C00078A9135726401D8B78B913D7860093F8E6
:1085D00078001377F70F0606A30A1501198A935836
:1085E00077003366160110AD854809063396C8003A
:1085F0001CC9850733980801B388C70223280505DD
:10860000B327F6021356F841B38707033306160360
:10861000B2973386080333B8080330C5C2977CC5C8
:1086200093576740858B1CBD060793F7F60F93D6CB
:1086300077001377E707558F38ADD84593F7F707DD
:108640003CBD9357870193D6770054AD93D65740DE
:108650008D8A54BD93D627409D8A74AD93560701E9
:1086600013F6F60F8A0793556600B18BCD8F95866A
:108670007CBD858A935787002300D502058A93F62F
:10868000F70F2301C50213D67600A301C50213D646
:108690006740058A2302C50213D65740058AA30204
:1086A000C50213D64740058A2303C502374600207A
:1086B000130686638D8A2304D502144289878D8B25
:1086C000A303F5021377F70F93D786012306F5026C
:1086D000058393D70601A304E50293F7F70F13D799
:1086E00086001377F70FA207D98F7EB55C42E206AA
:1086F000416813D787001377F70F558F93D68701FB
:10870000C206558F93D607017D18A206B3F606015F
:10871000558F144618D9230AF502584693D7860177
:10872000A30AF5021396860093D706013378060153
:10873000E20713568701B3E70701D18FA206370678
:10874000FF00F18ED58F0346C5031CDD935707014B
:1087500093F6F70F9182D18E230ED502856693860C
:1087600006F0A207F58F9356870093F6F60F85451E
:10877000D58F1377F70F2305B5027EBDA300050241
:1087800005832300E504A300B50401458280094662
:10879000E398C8E813D7860113D606011376F60FBF
:1087A0002207518FC20737063F00F18FD98F1CC9AE
:1087B000850713D6D700CE0713D786003CC593078D
:1087C00000201377F70F70C53CC999BDEFB25FA2C7
:1087D0004164FD547D14631994001305F05FEF00AC
:1087E000505D01456FB01FA313050008EF00905BBB
:1087F00075D165F40D45FDB7EFB29F9F4167814785
:10880000FD56378601407D17631ED70013F74700DA
:1088100019EF93F70704014499CF13050004EF0003
:10882000505911A85C5A93F55704F1DD65F31145D1
:10883000EF0030580D4422856FB0DF9DEFB25F9B93
:10884000AA84378401405C5893F75704EDDF114543
:10885000EF00505519C51145EF00B0550D456FB0EB
:108860007F9B0545EF00105411C50545EF0070547E
:108870000545F5B71C484145E39397FE9307F05F24
:108880001CDC4848B7E7FFFDA1077D8DC9BFEFB2EB
:108890003F96374700209307076B9D46D4C3930646
:1088A000000488C394C71305076B9306004023A6F2
:1088B000070094CBEF00F0491D45EFF03FF86FB093
:1088C0007F95EFB2FF92378401405C5893F7071011
:1088D000A5CFB737002003C70725373400208547C9
:1088E00013044425631FF704374500209307056BE5
:1088F0003147D8C31307000498C71305056B130746
:10890000004023A0070023A6070098CBEF00704487
:108910003145EFF0BFF208C0B7870140985FD176CC
:10892000938656CC1367071098DFD85F758FD8DF12
:10893000B73700200547A388E7241C403E856FB069
:108940007F8D23200400C9BF0945EF00B0450DC14C
:108950000945EF0010465C5C5177130757CCF98F3F
:108960005CDC0947B737002023AAE7248947F9B719
:108970002145EF0030430DC12145EF0090435C5C81
:108980005177130757CCF98F5CDC1147B7370020BC
:1089900023AAE72491475DB713050002EF0090403A
:1089A00015C113050002EF00D0405C5C517713073E
:1089B00057CCF98F5CDC1947B737002023AAE7248E
:1089C0009947ADBF4145EF00F03D0DC14145EF0076
:1089D000503E5C5C5177130757CCF98F5CDC154730
:1089E000B737002023AAE724954789BF1305002045
:1089F000EF00503B814739D113050020EF00703B59
:108A00005C5C5177130757CCF98F5CDC1D47B73797
:108A1000002023AAE7249D4715B7EFF09FEA7300D3
:108A20002030EFB2EFFC378701405C5B93F75704CF
:108A3000EDDF1145EF00103719C51145EF00703714
:108A40000D456FB02FFD1305F05FEF009036014527
:108A5000CDBFEFB26FF7374500209307C56D130701
:108A600020FB1305C56DD8AB23A0070023A2070088
:108A700023A4070023A6070023A80700EF00B027C0
:108A80000D45EF00502B374900200545EF005029D8
:108A90009304A0041304096B130A0040CA892285B9
:108AA000232004002322040023240400232604009E
:108AB00023284401EF00F029EFF05FD119C5FD1420
:108AC00093F4F40FE9FC6FB0AFF39307A01A1CC046
:108AD000A1475CC0930700041CC41305096B9307EE
:108AE00000401CC823260400EF00B026EFF0DFD0C2
:108AF000814401E9B737002005472384E724B70400
:108B00000040930770035CC0930700041CC41385E6
:108B1000096B930700401CC823200400232604008F
:108B2000EF00302313057003EFF05FD1014949E9ED
:108B3000370A108033EA4401C164930B7003930A2F
:108B40000004130B0040130C9002FD141385096BF5
:108B5000232004002322740123245401232604002B
:108B600023286401EF00F01E13057003EFF01FCD02
:108B700039F91385096B232044012322840123241E
:108B800054012326040023286401EF00901CEFF019
:108B90005FE915F9B7870140DC4B050963C607009B
:108BA000E31699FA6D4505B7E30E99FE1397170082
:108BB000E35B07F0B737002009472384E72421B798
:108BC000C164378AFF80854A130B0004930B004071
:108BD000378C0140FD141385096B232044012322A7
:108BE0005401232464012326040023287401EF0088
:108BF0005016EFF01FE3E31805EC83274C0105093D
:108C000063C50700E31999FC71BFE30D99F8B73705
:108C100000200D475DB7EFB2AFDD41678147FD56DC
:108C2000378601407D176312D702918B85E7054592
:108C3000EF005017014409C50545EF0090170544A2
:108C40001305F05FEF00F01611A85C5A93F5570476
:108C5000F1D961FF1145EF00D0150D4422856FB0A9
:108C60006FDBEFB2EFD82A89AE84378401405C58BD
:108C700093F75704EDDF1145EF00D01219C51145E8
:108C8000EF0030130D456FB0EFD80545EF009011A0
:108C900011C50545EF00F0110545F5B71C48638483
:108CA00027014145CDB71305F05FEF0090105C48F8
:108CB00039677D8F09E7C1839EA00145E9B7139706
:108CC00027014D45E34107FC13971701E34B07FCD0
:108CD000139707010145E35807FA3D456DB7EFB219
:108CE0002FD1854741117C87EF0010069307500272
:108CF0006305050E3734002003478424914713048D
:108D000084246308F704374500209307056B09475F
:108D1000D8C31307000C98C71305056B1307004051
:108D200023A0070023A6070098CBEF009002EFF0E6
:108D30009FEEAA875DE137870140544BB74700207B
:108D40009387876394C3144FD4C3544F94C7185365
:108D5000D8C71C2009476377F70419476384E704E1
:108D600014208D47639AF602388737450020930711
:108D7000056B420798C31307000498C71305056BDA
:108D800013070040D4C323A6070098CBEF00607CF4
:108D9000EFF07FE8AA8731E1182091476313F704C9
:108DA000814725A8374500209307056B0D47D8C399
:108DB0001307000498C71305056B1307004023A091
:108DC000070023A6070098CBEF00A0789305E100E9
:108DD0000D45EFF01FE9AA8741D53E8541016FB0EF
:108DE0006FC33887B73700203745002023A6E72414
:108DF0009307056B420798C32547D8C31307000C98
:108E000098C71305056B1307004023A6070098CBEE
:108E1000EF002074EFF03FE0AA8761F1B7860140D0
:108E2000D04A374700201307876410C3904E50C3C1
:108E3000D04E10C7945254C74DB7EFB2EFB8374970
:108E400000201304096BC1472A8BA14B1305096B42
:108E5000930A0004130A0040AE895CC02320740109
:108E6000232454012326040023284401EF00606ECC
:108E70004145EFF0BF9CAA845DED93077003130595
:108E8000096B420B5CC02320640123245401232678
:108E9000040023284401EF00C06B13057003EFF0BA
:108EA000FF99AA8449E9374500209307456C7D570F
:108EB00098C31307000398C70947D8C71305456C23
:108EC0000547D8CB23A2770123A807006525930780
:108ED00030031305096B5CC02320040023245401D4
:108EE0002326040023284401AD2513053003EFF0A9
:108EF000FF94AA8429E137890140032449031374AC
:108F0000A4620DEC37052000712D65D979252A89D9
:108F1000378A014083274A0393F7A76299E7370509
:108F20002000492565D9952D2A842145A52D11C9F3
:108F300021454125914426856FB08FAC01440149FC
:108F4000EDB70945852509C50945A5258944E5B736
:108F500013050002812D11C513050002992D9944B6
:108F6000D9BF130500203D2D11C513050020912503
:108F70009D44D1B71305F05F2D2D93578901131729
:108F80008901931689003706FF005D8FF18E558F9A
:108F9000C166938606F0135989003379D900336985
:108FA00027019317840113578401D98F1317840065
:108FB000718F2180D98F758C5D8C23A2290123A00C
:108FC000890095BFEFB22FA1411102C402C68949A1
:108FD00011E1AA89B7870140DC4B39451397670037
:108FE000634C0706B73400209384C4248A202C00E5
:108FF000EFF0BFE435E1B247130550021397D700F5
:10900000635C07049C40374900201304096BC207C6
:109010001CC01305096B93077003130A0004930423
:1090200000405CC0232444012326040004C8152307
:1090300013057003EFF09F8005E199471305096B55
:10904000232034015CC0232444012326040004C8E7
:1090500009231945EFF08FFE41016FB00F9BB73721
:10906000002083C787240D476383E704EFB24F983E
:1090700009472A840145636AF70285471305700290
:1090800063E587021375F40FEFF0DFF319EDB7878F
:109090000140D843F9769386F67F758FD8C3D843BD
:1090A0002E04598CC0C3D843D8C36FB0AF961305F4
:1090B00070028280EFB2CF93011185451305000342
:1090C000E526854513052040C9268967938707F063
:1090D0000D44E1444C0837150140FC8222CC26CED9
:1090E000612C22CC3714014091474C0813050440F1
:1090F000FC8226CE5124930700084C081305044037
:10910000FC82930780043ECE852C752E93071004B5
:109110007C86680085473EC823070100312EEFF0AA
:109120005F9321E9EFF0BFBB29E537450020130429
:10913000856513058565EFF00FB905ED0355440509
:109140004205EFF0CFF415E50545EFF05FF115E1CD
:10915000B747002003C7E76A8547194563F3E7006F
:109160000545EFF04FB5B7370020A384072401452C
:1091700001A8B737002003C787248D47E30AF7FC0F
:1091800005616FB02F89B7470020014701459387DC
:10919000476F930660103386E7001022050732956B
:1091A0001375F50FE319D7FE83C757101D8D13757F
:1091B000F50F8280EFB2CF8311710122B7450020F5
:1091C0009384456F130600109385456F0A85EF4021
:1091D000E00437440008130504E031228A851305B2
:1091E00004E00D2A130404F013060010A2850A857A
:1091F000EF40C00283A7041022853EC083D74410ED
:109200007C82D5208A8522853122F92011616FB0B8
:109210006F80B737002003C797252DEFEFA2BFFB64
:1092200037440020B745000813066010938505E019
:109230001305446F938997251309446FEF30107E0F
:1092400003470900B7340020BD47130A446F9384D5
:109250008425631FF700EFF01FF3834759106399CC
:10926000A70085479CA085472380F9006FA0FFF9E0
:10927000C56513066010938505BF1305446F2380F1
:109280000400EF30B079EFF01FF0A302AA10EFF066
:109290007FF2C1BF8280EFA2BFF5EFF0DFEEB747EC
:1092A00000209387476F03C757106306A700A38268
:1092B000A710EFF03FF06FA0FFF5B7066745B7279F
:1092C0000240938636123797EFCDD4C31307B79A6F
:1092D000D8C3D4D3D8D38280372702401C4BA16691
:1092E000D58F1CCB8280B7270240984BB70602006F
:1092F000137505F0558F98CBC8CB984B13670704AF
:1093000098CBD847058B75FF984B8176FD16758FE6
:1093100098CB8280372702401C4BC166137505F03D
:10932000D58F1CCB5C47858BF5FF372702405C4708
:10933000898BF5FF3727024013060010B386F5002E
:1093400003A80600B306F50023A006015447898A46
:10935000F5FE9107E394C7FE1C4BB7062000D58F9E
:109360001CCBB7270240D847058B75FF984BC176B9
:10937000FD16758F98CB82809C4513F7070113F873
:10938000F70001C7D8413368E8008E2113F7F50FC5
:1093900039C318418146854E3D4F930F8002930299
:1093A0008004214E3396DE00B3F8C5006311160326
:1093B0009398260033131F011343F3FF3377E30021
:1093C000B318180133E7E800639FF70550C9850615
:1093D000E39AC6FD18C11307F00F6375B704544133
:1093E0002146854E3D4F930F800293028004414EEB
:1093F000B398CE0033F715016392E80213172600E5
:1094000001173313EF001343F3FFB376D300331781
:10941000E800D98E639DF701232A15010506E3199B
:10942000C6FD54C18280E39457FA10C94DB7E39743
:1094300057FE23281501DDB7B737002003A7C7253E
:10944000894710216311F70214318D4763EDD7006E
:109450003C219A0637E700E09607D58F93F7F70F80
:1094600032972300F740544105479357560033176E
:10947000C70089CA938707048A07B7E600E0B69752
:1094800098C3828093870706C5BF99C537170240E6
:109490005C4B5D8D48CB8280B7170240D84B13459B
:1094A000F5FF798DC8CB828099C5371702401C4FD4
:1094B0005D8D08CF8280B7170240984F1345F5FFA6
:1094C000798D88CF8280B787014023A0070023A22F
:1094D000070023A4070023A6070023A2070223A452
:1094E00007023707C00023A607021307F77F98DF9C
:1094F00023AE0702828054411C4537860140584202
:10950000D58FE17693860610758FD98F5845D98F00
:109510001841D98F1849D98F5829D98F5CC28280B8
:10952000378701405C4309C593E707105CC382801D
:1095300093F7F7EFE5BFB78701409843719B98C356
:109540009843598D88C38280B787014088430D892D
:1095500082801C41378701401CC754475C4110453D
:1095600093F60680D18FD58F5445D58F1449D58F6A
:109570005CC782801C41378701405CD35C411CD7AB
:1095800054571C45504593F686F0D18FD58F14491A
:10959000D58F5449D58F5CD78280B787014003A50A
:1095A00007088280B7870140DC5B7D8D3335A000E2
:1095B0008280B787014088DF8280EFA27FC3EFC03F
:1095C0001FED37370240A3000740C146A300D74034
:1095D00023000740930690022300D740FD56230541
:1095E000D74023010740930630022301D740FD56A0
:1095F0002328D740232A0740232C074083470740CE
:10960000014593E707012300F7406FA0BFC089E53C
:10961000B7370240A3810740B75700209387C78020
:109620008CA7014582800D458280BC21D831D02194
:10963000A83113988701220793F6F707518FB75780
:109640000020135888411377F77F0D891396260061
:109650009387C780634D0804514833880603C29737
:109660002396E71405472387A7142388E714B73701
:10967000024003A50741138806018546B3960601FB
:10968000C98E23A8D7409387B74DB29713072002FE
:1096900098A3B7370240938787493E96DC31D8219B
:1096A0000145A207D98F93F7F77F1EA28280514808
:1096B00033880603C297DAA7054798ABE8A7B73700
:1096C000024003A807410547B316D700B3E60601D9
:1096D00023A8D7409387A74D4DBF0145828093F7BC
:1096E000F507E205E18563C5050281EBB737024066
:1096F0000D47A38DE74C01458280373702408A072A
:109700001307B74DBA9798231367370098A3E5B7A7
:1097100099E7B73702400D47238DE74CE9BF37374C
:1097200002408A071307A74DF1BF93F7F507E2053B
:10973000E1858A073737024063C905001307B74D33
:10974000BA9723800700014582801307A74DCDBF3C
:109750000145828093F5F50719E27D55B9EAD147B5
:10976000B387F502375700201307C7807955BA979A
:1097700003C80701630F0802137836007555631A92
:109780000802D0CB94CF23AE0700B1E185E6B7370E
:109790000240239C074CB737002083C71726373772
:1097A000024093F7F70FB337F0008E07230DF74C05
:1097B000014582805E2763F3F600B687C20737371C
:1097C0000240C183231CF74C232EC740E9B737352D
:1097D0000240139725001305854D3A95FD158DEA36
:1097E00023100500B73702409387A74D3E971C23EF
:1097F000B74600209386C67FB69513F6470E9C2188
:1098000093F7F70FB337F0008E07D18F1CA34DB736
:10981000DE2763F3F600B687C207C1831EA1B73700
:10982000024093878745BA9790C36DBF93F5F507BC
:1098300019E27D55B9EAD1473387F502B7570020C1
:109840009387C7807955BA9703C707151DCF13773C
:10985000360075551DEB23AAC71423ACD71423AECD
:1098600007148DE53737024013070740A14799CA0F
:1098700050CFB737002083C7072693F7F70FB337CA
:10988000F0008E07A30DF70C01458280B737024028
:10989000FD158A05138707422E979387F74D10C34E
:1098A000BE959C2193F7C70F9CA1F9BF4111B73713
:1098B000024022C626C44AC21384074038241377C4
:1098C000F70F93762700638406222C3438348946B8
:1098D000BD8911830D8B631FD712375400201304E9
:1098E000C480D1E11C4C5A24B7340020544C9384DA
:1098F000142663E4E706998F1CCC9C20369758CC3D
:1099000093C71700504C9305000801459CA0EF0039
:1099100050631C2493F7F70F91CB1824B7370240FC
:109920001377F70FA381E740230404007A20B737A9
:1099300002409387074009C70307040063470700F5
:10994000C0CFA38D070C85479CA0B73702400947BD
:109950002385E7409387074045AAB6975CCC232C24
:109960000400854745B7139825001385A74D4295F8
:109970001821B74600201383F5FF1377470E1367AE
:10998000270018A151473387E5029386C67F3A9492
:10999000104C5A248328C401637FC704BA98338EBD
:1099A00066004C48232E140183480E00BA95198E88
:1099B00093C818009387874D4CC810CC23001E0114
:1099C000C2976373E6003287420741839AA3B73791
:1099D0000240938787453E982320B8001C219A9621
:1099E00013F7470E9C2293F7F70FB337F0008E075B
:1099F000D98F1CA199BF9A969C22469650CC93C7AA
:109A00001700232C040093E5050801459CA2EF00F4
:109A1000505325BF1DFBA9ED0359C400B7540020C6
:109A20009384C48003A6C41583A7841542091359DF
:109A30000901B38727414A9623ACF41423AEC4141A
:109A40000145EF00D052B737002093870726631CEB
:109A5000090044CCA30D040C054798A3B737002098
:109A6000A380E726DDB598231347170098A3F1BD1F
:109A7000383413770704E30A07EC1398250093861C
:109A8000B74DC29698221377C70F1367270098A285
:109A900051473386E502375700204A241307C78011
:109AA000420541813297832847150326C7150323B2
:109AB0008715AA982A963303A340232A1715232E25
:109AC000C714232C67140357C7146364E500631697
:109AD00003000145EF00B0498DBD9387C7413E9813
